:020000040800F2
:1000000028090020D50100081F3F0008513B0008C7
:100010001D3F000823220008514200080000000094
:10002000000000000000000000000000233F000866
:100030003724000800000000213F0008253F000889
:10004000EF010008EF010008EF010008EF010008D0
:10005000EF010008EF010008EF010008EF010008C0
:10006000EF010008EF010008EF010008EF010008B0
:10007000EF010008EF01000859220008652200087E
:10008000EF010008EF010008EF010008EF01000890
:10009000EF010008EF010008EF010008EF01000880
:1000A000EF010008EF010008EF010008EF01000870
:1000B000EF010008EF010008EF010008EF01000860
:1000C000EF010008EF010008EF010008EF01000850
:1000D000EF01000845420008EF010008EF010008A9
:1000E000EF010008EF010008EF01000800F002F83E
:1000F00000F061F80AA090E8000C82448344AAF161
:100100000107DA4501D100F056F8AFF2090EBAE85E
:100110000F0013F0010F18BFFB1A43F0010318473B
:10012000F045000010460000103A24BF78C878C19E
:10013000FAD8520724BF30C830C144BF04680C60ED
:10014000704700000023002400250026103A28BF35
:1001500078C1FBD8520728BF30C148BF0B60704739
:100160006E2900F0B380702900F0C480662904F085
:100170003682652904F03382672904F030826129D0
:1001800004F02F82732900F0C585002070471FB549
:100190009DE8030001F024FA00F0D2FD04000020E5
:1001A000002104F07BF9E06000F0E2FE1FBD10B515
:1001B00000F047FF10BD00F0AFFF1146FFF7E7FF6B
:1001C00004F0E2F801F09EF903B4FFF7F0FF03BC7E
:1001D00001F098FB0948804709480047FEE7FEE721
:1001E000FEE7FEE7FEE7FEE7FEE7FEE7FEE7FEE7E7
:1001F00004480549054A064B70470000853F000842
:10020000ED00000828030020280900202805002010
:10021000280500200FB4044910B503AA029800F085
:100220007DFD10BC5DF814FB2002002070B5044673
:1002300085690068C10601D5302600E02026C00788
:1002400007D070BDD4E9012130469047206A401C98
:1002500020626D1EF6D570BD70B5044685690078C4
:10026000C00707D170BDD4E9012120209047206A42
:10027000401C20626D1EF6D570BD70B50C4605465B
:10028000012A05D02878800600D5EA69002302E01B
:10029000012305E05B1C934202D2E05C0028F9D107
:1002A000A869E618C01AA861286A18442862284676
:1002B000FFF7BCFF04E0D5E9012114F8010B9047DA
:1002C000B442F8D32846FFF7C7FF70BD1168026833
:1002D000006A530501D508700AE0D30501D50880EE
:1002E00006E0130603D5C217C1E9000200E008606A
:1002F00001207047F0B4136802680824C4610C46FA
:1003000042F020020260110502D50E4A7A4402E052
:100310000C4A7A440E32002100F1240505E003F076
:100320000F061B09965D6E54491C002BF7D105780A
:100330002D0703D5702C01D101231032F0BC00F041
:10034000F1B80000004300002DE9F05F8946044643
:100350004FF0000ADFF874B1FB44C0F820A020463B
:10036000E1688847002874D0252806D0D4E9012107
:100370009047206A401C2062F1E700265F46204635
:10038000E16888472028054607DB312D05D278191A
:1003900010F8200C08B10643F1E7B00701D526F0AC
:1003A0000406C4F81CA00027C4F818A02A2D09D000
:1003B000284603F072FF38B304EB8708303DC8F8D5
:1003C000185019E059F8041B204604EB870291618C
:1003D000E1688847012F054618D1E069002820DA36
:1003E00026F020061DE0D8F8180000EB800005EB91
:1003F00040003038C8F818002046E16888470546B4
:1004000003F04BFF0028EED1012F0AD02E2D08D18A
:100410002046E16888477F1C0546022F46F02006EB
:10042000C4DBA069002803DA404246F00106A0615F
:10043000F00701D026F010066C2D0BD0682D09D0E6
:100440004C2D39D06A2D35D0742D35D07A2D33D03E
:1004500016E038E0E1682F4620468847B842054656
:1004600009D16C2F26D04FF48060E1680643204606
:100470008847054604E06C2F1AD04FF4807006437D
:100480000DB3A5F14100192802D8203546F40066C5
:100490004A462946204626604E46FFF761FE80B157
:1004A00001280BD0F61D26F0070000F1080956E7D9
:1004B0004020E4E78020D8E70020D6E706F10409D1
:1004C0004DE7284652E7206ABDE8F09FDC42000075
:1004D0004FF0000200B5134694469646203922BFDD
:1004E000A0E80C50A0E80C50B1F12001BFF4F7AF28
:1004F000090728BFA0E80C5048BF0CC05DF804EB0A
:10050000890028BF40F8042B08BF704748BF20F877
:10051000022B11F0804F18BF00F8012B7047704775
:10052000704770472DE9F0470D46994692460446BC
:1005300000F124080168880604D5E06921F0100163
:10054000216000E00120A84201DD471B00E00027F8
:10055000A1697A1902EB0900081AA0612078C00687
:1005600002D42046FFF762FE002608E0D4E901210C
:100570001AF806009047206A401C761C20624E45FF
:10058000F4DB2078C0060AD52046FFF74FFE06E0D0
:10059000D4E9012130209047206A401C2062381E97
:1005A000A7F10107F4DC07E0D4E9012118F8050000
:1005B0009047206A401C2062281EA5F10105F3DC4B
:1005C0002046FFF749FE2078000602D50220BDE84C
:1005D000F0870120FBE770472DE9FF4F0C461E46D0
:1005E0004FF0FF378BB0D2E90001DDF860800A9050
:1005F0008A46C1F30A5505B93D46002108464FF029
:100600000000BAF1000F00F4400005DA00EB8000B2
:100610004FF4400101EA50004FEA9059B9F1010F3F
:1006200000DDB9460A9850EA4A000ED044F6105050
:10063000A5F2FF3545432F14B8F1000F1ED07542C7
:10064000291E1EDDC9F100021CE0B8F1010F4FF0B8
:10065000000001D0302103E0F24305E02154401CAA
:10066000B042FBDB30460022002121540B99C1F837
:100670000880C1E900200FB0BDE8F08FBD1B6D1CE4
:10068000DEE74A4600DA694206A800F0FBFB06AB4B
:1006900093E8070003AB83E8070050460A9901F08E
:1006A000CDF98DE80700A0F500501F3800900398A1
:1006B000002D0ADD42F21F014A460844002303A927
:1006C0000390684601F036FC09E0A0F500504A4668
:1006D0001F38002303A90390684601F040FC8DE811
:1006E00007000004000C03D04FF0FF30410800E089
:1006F0001046B8F1000F03D00022009215461EE00C
:10070000751E05D400F020FB303262556D1EF9D500
:10071000B3460122084302D000227F1C04E0207867
:10072000302801D100227F1E002A099784D01DE0C5
:10073000112D07DA00F008FB303262556D1C50EACB
:100740000102F5D1084302D00098C8B10EE00021A3
:10075000681E05E0235C625C63542254401E491C01
:100760008142F7DBAB46A81B401E0990002004F82D
:100770000B000B98099AC0F80880C0E9002B7AE7B3
:1007800011264FF0000857E72DE9F04F8846044640
:10079000D21D22F0070191B0D1E90001CDE90A0193
:1007A00003F057FD02460B98C00F01D02D2007E043
:1007B0002068810701D52B2002E0202101EAC0003A
:1007C000032A099001D0072A05DB0346414620464B
:1007D00000F018FB0BE12078800601D5E06900E00D
:1007E0000620B8F1650F814606D0B8F1660F18D023
:1007F000B8F1670F70D131E00020B9F1110F00900E
:1008000001DB112301E009F101030AAA01A90CA8E7
:10081000FFF7E2FEDDE90C70002609F101058346D1
:1008200047E001204B4600904FF000470AAA01A97B
:100830000CA8FFF7D1FEDDE90DB00C995D4600264E
:1008400010B909F101000D18B9EB050003D4C0F18E
:10085000FF3609F10105A5EB09002BE0B9F1010F05
:1008600001DA4FF001090020B9F1110F009048465C
:1008700001DD112300E003460AAA01A90CA8FFF735
:10088000ABFEDDE90C704D4600268346207800075C
:100890000AD4AB4500DA5D4601A8012D04DD4119FB
:1008A00011F8011C302907D04F4502DA17F1040F67
:1008B00004DA012082460FE06D1EEEE7002F02DC15
:1008C000ED1B3E4403E0781CA84200DD7D1CB81BF4
:1008D00000F1010A4FF000472078000703D4AA4531
:1008E00001DB4FF0FF3A0021B7F1004F0DF1430853
:1008F0008DF8431024D002202B23002F01DA7F42F1
:100900002D230A21021EA0F1010000DC5FB197FB3C
:10091000F1FC97FBF1F201FB1C7C17460CF1300C4B
:1009200008F801CDEEE7A8F1010003702188090560
:1009300001D5452100E06521A0F1010800F8011C66
:1009400009980FA9A1EB0807FF1D00B1012041196B
:1009500001EBEA70A1693844081A401EA0612078B2
:10096000C00602D42046FFF761FC099828B1D4E9FB
:1009700001219047206A401C20622078C00622D5C1
:100980002046FFF753FC1EE0002E04DBB34502DDDA
:1009900001A8805D00E03020D4E901219047206A61
:1009A000401C2062761CAAF101005FEA000A0AD10D
:1009B00000F0C6F9C0680168405CD4E901219047A5
:1009C000206A401C2062281EA5F10105DCDC07E03E
:1009D000D4E9012118F8010B9047206A401C2062DD
:1009E000381EA7F10107F3DC2046FFF735FC032092
:1009F00011B041E62DE9F04F04460D46D21D22F01C
:100A0000070089B0D0E900974846394603F021FC39
:100A10000246F80F01D02D2307E02068810701D599
:100A20002B2302E0202101EAC0038DF820300BB116
:100A3000012000E00020032A824601D0072A04DBBF
:100A40002946204600F0DEF93FE12078800601D4F7
:100A50000D2500E0E569C7F30A560D2D49DA00219E
:100A60004FEA175B08464FF00000002F00F44000EB
:100A700007DA00EB80004FF4400100EBD07001EA90
:100A800060008115012901DD4FF0FF3100224FEA9E
:100A9000850CBCF1180F06D31346ACF118004FF0CB
:100AA0008052C24003E04FF4801323FA0CF30CF1A0
:100AB0000C0CBCF1200F04D3ACF1200C09FA0CF0A3
:100AC00001E007FA0CF000294FF0004801DD18B9E9
:100AD0000FE00ED140450CD319EB02095F4121B95B
:100AE000404502D19F4329EA0209BBEB175F00D0C2
:100AF000761C2088000502D57B48784402E07A48BD
:100B00007844193808AA302302F80A30037C0AF125
:100B10000101002E0AF1020A53546A4602DC4FF02A
:100B2000300101E04FF031014FF001088DF8001065
:100B300002D0A6F2FF3603E059EA470100D06B4E1F
:100B4000002D02DC2178090704D54FF002082E2180
:100B50008DF80110C44600210BE0C7F303433F01A9
:100B6000C35C491C6D1E02F80830052908F1010814
:100B700001DA002DF1DC00210CE000EB1973491CB7
:100B80001B786D1E082902F808304FEA091908F190
:100B9000010801DA002DF0DC21688B0602D516E091
:100BA000A8F10108E04505DD02EB080313F8013C5C
:100BB000302BF5D0B8F1000F09DD02EB080313F874
:100BC000013C2E2B03D1090701D4A8F10108002D07
:100BD00005DD3E2102F808106D1E08F10108407C79
:100BE000002E02F8080008F1010804DA2D207642F0
:100BF00002F8080002E02B2002F808000A214FF456
:100C00007A70864208F101080BDB96FBF0F3303373
:100C100002F8083096FBF0F308F1010800FB1366B8
:100C200001E0642E0CDB642096FBF0F3303302F815
:100C3000083096FBF0F308F1010800FB136601E0B1
:100C40000A2E06DB96FBF1F0303002F8080008F1BE
:100C5000010896FBF1F001FB1060303002F808004B
:100C6000A16908F1010808EB050202EB0A00081A65
:100C7000A0612078C00602D42046FFF7D7FA216A87
:100C800008AE01EB0A00206204E0D4E9012116F865
:100C9000010B9047BAF1010AF7D22078C00602D5BD
:100CA0002046FFF7C3FA6E4609E016F8010B3E280E
:100CB0000FD0D4E901219047206A401C2062B8F18E
:100CC0000108F2D22046FFF7C7FA09B00320BDE8B9
:100CD000F08F206A2844206203E0D4E9012130200B
:100CE00090476D1EEBD3F8E75E3B000002FCFFFF70
:100CF00010B5436913B1AFF3008001E0FFF7BDFA0F
:100D0000012010BD127800F124010A7000224A70FF
:100D10000122EDE711684FF0FF32E9E7074B70B5AC
:100D20000D467B4400F05BF80446284600F01CF9B1
:100D300010B14FF0FF3070BD204670BD833500000C
:100D400000487047E802002030B5B0F10A024FEACF
:100D5000900E71F100034EEA817EB0EB0E0061EB64
:100D600091014FEA101E4EEA017E10EB0E0041EB9E
:100D700011114FEA102E4EEA016E10EB0E0041EBFE
:100D800011214FEA104E4EEA014E10EB0E0041EBDE
:100D90001141401841F100014FEAD00040EA417092
:100DA0004FEAD10110EB80054FEA810444EA9074C8
:100DB00044EB01046D1944EB0404521BA3414FF0B2
:100DC000000348BF0A3200D530BD401C41F100018C
:100DD00030BD000001694A1C02610878704700B507
:100DE0008FB0CDE901310021059105497944CDE964
:100DF000031011466846FFF7A7FA0FB000BD0000C8
:100E0000E5FFFFFF2DE9F0411F4604460326016878
:100E1000072A01F4006004DB08B116A505E016A559
:100E200003E008B115A500E015A521F01000206031
:100E3000A069C01EA0610FB1401EA0612046FFF74F
:100E4000F5F94FB1D4E9012138469047206A401C9A
:100E50002062C01C206206E0206AFAE7D4E9012182
:100E600015F8010B9047761EF8D22046FFF7F4F9EB
:100E7000BDE8F0814E414E006E616E00494E460065
:100E8000696E66002DE9F047814616468AB03548FE
:100E900078440DC88DE80D0032487844801C03ACBE
:100EA0000DC884E80D0041F69B300844372190FBC3
:100EB000F1F290FBF1F5A5F1800501FB12041B3C5A
:100EC00002D56442012000E00020DFF898A08046AF
:100ED0000027FA44AAF1BE0A0EE0E0070AD0324623
:100EE000684607EB470101230AEB810101F037F85F
:100EF0008DE8070064107F1C002CEED1194F7F4451
:100F0000AE3F19E0E80715D007EB04100DF1180A01
:100F100090E80E008AE80E00C068F04201D19819EE
:100F200008903246012306A903A801F018F803AB84
:100F300083E807006D10641C002DE3D14FF001031E
:100F400032466946B8F1000F03A802D000F0F2FF64
:100F500001E001F004F8C9E90001C9F808200AB06D
:100F6000BDE8F08758380000007B00F08000704733
:100F700010B542485421FFF7ABFA41485421FFF71E
:100F8000A7FA40485421FFF7A3FA3F493B483C4A9F
:100F90003F4B08603D490A603A491960531C03659C
:100FA000481C1065012008653B48344A39A1784443
:100FB00000F00CFA20B9384878440A3800F0ABFA4F
:100FC00037482F4A35A1784400F000FA20B9344858
:100FD00078440A3800F09FFA32482A4A2FA1784410
:100FE00000F0F4F920B92F4878440A3800F093FA59
:100FF00040232248DC000021224600F0C4F920B141
:1010000025487844543800F086FA1D48224640238B
:10101000002100F0B8F920B121487844543800F09C
:101020007AFA184822461023002100F0ACF9002873
:1010300006D01C487844BDE81040563800F06BBA22
:1010400010BD104870B5006D20F001040B4800F091
:1010500033FA0B4800F030FA0A4800F02DFA09E0A4
:10106000206D20F00105204600F026FA204600F011
:1010700078F82C46002CF3D170BD0000CC01002084
:10108000200200207402002014000020180000201C
:101090001C000020720000005237000077000000A2
:1010A0003E3700002A3700000EB5CDE9000100F000
:1010B00009FC029069460120ABBE0EBD08B5694629
:1010C00000900220ABBE08BD1FB58DE80700694641
:1010D0000520ABBE04B010BD1FB58DE80F006946FA
:1010E0000620ABBEF6E708B5694600900920ABBE06
:1010F00008BD1CB5CDE9000169460A20ABBE1CBD88
:10110000704708B5694600900C20ABBE08BD0000D2
:1011100000487047C80200207546FFF7F9FFAE4649
:1011200005006946534620F00700854618B020B5F3
:10113000FFF75EF8BDE820404FF000064FF00007D3
:101140004FF000084FF0000B21F00701AC46ACE86F
:10115000C009ACE8C009ACE8C009ACE8C0098D46DC
:10116000704770B50446051F00F01EFA0068002C99
:1011700014BF446870BD002C18BFAC423CBF204671
:101180006468F8D301680A18AA4218BF456003D101
:101190002A6805461144016028684119A1421CBF14
:1011A0006C6070BD6168696021680844286070BD2A
:1011B0002DE9F04705460C46C86820F4201040F49D
:1011C0008000C860800602D5084600F03AFBE0685F
:1011D00041F282014FF0FF390140022903D020463D
:1011E00000F0D8FAB5E000F42041B1F5004F0FD17E
:1011F000C00306D56168E06A884200D8084660608E
:1012000006E02069E06260606069FFF77AFFA06134
:10121000A0680022EEB200280DDAE1688B050AD43E
:10122000C043A06041F490302260E0606068411CDF
:1012300061600670A5E0E0689046226040F40050CE
:10124000E060206968BB6069FFF74DFF012704F18A
:101250002405A0B1A08910F4407F08D0E06900F017
:10126000EEF9206118B1E06840F4006016E0E76133
:101270002561E06820F4407040F480600EE0E06991
:1012800000F0DDF900282061F1D0E06840F4006052
:1012900010F4407FE06002D140F48070E06020698B
:1012A0006060E06825696FF0010AC1051FD56168BB
:1012B000E06A884200D80846411B04D022462846EE
:1012C00000F072FAF0BBE068010203D5E562C4E900
:1012D000015854E0691CE1626160E16940F48030CA
:1012E000491EC4E9021030462E70BDE8F0870102A5
:1012F00002D500F480320AE06068411C616006702B
:10130000E0680A2E40F48030E06006D00022E16AF6
:101310006068814203D90B4602E00122F7E70346E9
:10132000A7895B1B7F0503D4E7699F4200DDE2B11B
:10133000814200D80146E5620F1AC4E90158002B2A
:1013400009DD00E005E022461946284600F02CFAA7
:1013500008B14846C9E747B1A069E5626560C01BAE
:10136000A061E06840F01000E060E068000208D58D
:101370006168A069E562491B08446560A061504648
:10138000B3E73046B1E770B5C468A50713D065026E
:1013900011D4B2F5807F09D0B2F5007F06D0B2F546
:1013A000806F08D1012300F1240106E05D1E6FF07B
:1013B0007F46B54201D3012070BD0161C361416028
:1013C00024F470611143C160002070BD2DE9F0412B
:1013D0000C4607461646104600F06EF82078611C51
:1013E00061280AD0722802D077283CD102E001257A
:1013F000002405E00225042402E0082448F2020546
:1014000011F8010B2B2806D0622809D011F8010C25
:1014100074280AD00BE045F0030544F00204EFE71E
:1014200045F0040544F00104EAE744F010043846AE
:101430002146FFF739FE411C15D000213161716052
:101440004FF40071F560F1617061200704D53046FA
:101450000222002100F022F9306D40F001003065D9
:101460003046BDE8F0810020FBE72DE9F0410D4654
:101470000646104C206DC10704D0410804D020F06E
:101480000104F7E722460EE0542000F0D8F80700E8
:101490000ED0206D47F001010843542120653846E5
:1014A000FFF716F83A4629463046BDE8F0418DE789
:1014B0000020D6E7CC0100202DE9F04704464FF08C
:1014C00000094FF0FF37C568D4E90486A80707D0A4
:1014D000204600F093F93046FFF7F0FD002802DACD
:1014E0003846BDE8F087280502D54046FFF739FEAB
:1014F0004C212046FEF7ECFF206D20F00100206516
:101500004846EEE710B50446AFF300802046BDE83C
:101510001040FEF759BE10B500F0BAF9BDE8104012
:1015200000F0B0B94FF0013C50F8042B51F8043BE7
:101530009A4221D1A2EB0C03934313EACC1317D1A7
:1015400050F8042B51F8043B9A4215D1A2EB0C033E
:10155000934313EACC130BD150F8042B51F8043BFE
:101560009A4209D1A2EB0C03934313EACC13DBD0CC
:101570004FF00000704700BFD01A01BAB1FA81F1F4
:1015800001F0180122FA01F0CB40C1F12001DBB2D9
:10159000C0B2C01A2CFA01F3D11A914311EAC31157
:1015A000E6D170477047000000487047D002002025
:1015B000704770477047704738B504460A460020A8
:1015C0006946AFF30080002808BF38BD0246009985
:1015D000204600F0A4F9012038BD012000F0F3B945
:1015E000F8B5AFF30080054600200C46102000BF80
:1015F0000646A819A0420DD9324669460020AFF32D
:101600000080070008BF00F0DEF90098A04218BF74
:101610000546C419FFF7C8FF05600746F01D20F016
:1016200007004619284600F073F9B44208BFF8BD18
:10163000A21B31463868BDE8F84000F070B970B5BB
:101640000646FFF7B1FF056806F10B0020F007041E
:10165000B4429CBF002070BD2B466A68BAB11068C6
:10166000A04210D304F1080188423CBF5068586082
:1016700007D35168101941601168091B0160586057
:101680001460101D70BD13465268002AE7D1214630
:101690002846FFF791FF0028DED170BD2DE9F0410B
:1016A000044616460D464769007B80072ED0384613
:1016B000FFF719FD50BB3EB3012E02D0022E25D1FB
:1016C00004E0204600F045F905441DE03846FFF7E8
:1016D00018FDE168002841F01001E16005DA2046BC
:1016E00000F058F80120BDE8F081C9030BD562680D
:1016F000E16A914200D81146A26911442269891A0F
:10170000814200DD08460544002D01DA0220EAE7A7
:10171000E16A6068E268814206D29103E06203D523
:1017200022F4003141F01002A6690027AE4213DC1A
:10173000E16A814201D90B4600E0034603EB060C47
:101740002369ACEB030CAC4506DD814201D98C4624
:1017500000E084469C4505D1A760276042F0200048
:10176000A5620DE0AD1BE669AE1B8142A66000D903
:101770000846C01A281A20605819606022F020001C
:1017800003490840E060002084F84870ABE700009F
:10179000BFCFD7FFC16821F4001141F08001C160C3
:1017A00000218160016070472DE9F04781461446B1
:1017B0000E464FF0FF383248D5685769054209D0C8
:1017C0003846A169FFF795FC002811DB2C48C0437F
:1017D0000540E5602B46324649463846FFF774FC23
:1017E000A16920F00042B21A11440028A16103D07F
:1017F0002046FFF7CFFF4046BDE8F08770B50446AE
:101800000569C06A6168884200D80846E16821F429
:101810002011E160C90312D5A84208D02246411B1D
:101820002846FFF7C1FF10B14FF0FF3070BD002018
:10183000E562C4E90150E06820F48030E0600020F7
:1018400070BD10B50446C06820F02000E060A16AB9
:10185000A06988420DD02046FFF7D0FFE06820F451
:10186000405040F01000E060A06AA0612069E06292
:10187000606044F24001E0688843E06010BD000011
:1018800010000200002801D000F03CB870470000B2
:1018900010B5014602A000F07DF8012010BD000047
:1018A00053494752545245443A205265646972651F
:1018B00063743A2063616E2774206F70656E3A20FE
:1018C0000000000010B5431C02E010F8011B71B1CC
:1018D0008107FAD14FF0013202C88C1A8C4314EA06
:1018E000C211F9D0C01A0A0603D0C01E10BDC01A1A
:1018F00010BD0A0401D0801E10BD0902FCD0401E9C
:1019000010BD000001491820ABBEFEE72600020012
:1019100000210160C0E901107047102070470346A4
:1019200040688C46002818BF88423CBF0346406888
:10193000F8D318681844884207D00CF1030020F04F
:101940000700001D411A521A0146081D0A60FFF7E0
:1019500008BC10B50146C268900703D0900607D5B1
:10196000886A0AE000F03EF801210160881E10BD7F
:101970008B69486818440B69C01A91F848301BB14C
:1019800091F84910401A10BD1103FCD50028FADD6A
:10199000401E10BD70B505460C460A2000E06D1CC7
:1019A00000F018F835B128780028F8D102E0641C5E
:1019B00000F010F814B120780028F8D1BDE870408C
:1019C0000A2000F007B810B500F010F8BDE810408C
:1019D000FFF758BF08B569468DF800000320ABBE7D
:1019E00008BD000000487047C802002010B501285B
:1019F00005D0002103A0FFF7CDFF012010BD09A1F4
:101A0000F8E7000053494752544D454D3A204F7571
:101A100074206F662068656170206D656D6F7279E6
:101A2000000000003A2048656170206D656D6F729E
:101A30007920636F72727570746564005FEA400CA0
:101A400008BF91F0000F4FEA8C234FEAC12243EA0E
:101A500051514FEA1C5018BF00F5F0404FEA3000DA
:101A600018BF41F000415FEA6C5C00F02980BCF1D6
:101A7000FF3F08BF40F080407047130C06BF1204C0
:101A80004FF0100C4FF0000C130E04BF12020CF1BB
:101A9000080C130F04BF12010CF1040C930F04BFC8
:101AA00092000CF1020CD30F04BF52000CF1010C98
:101AB00011464FF00002A0F11F00A0EB0C00704790
:101AC00011F0004F08BF704731F000413FF4D5AF2F
:101AD0000B0C06BF09044FF0100C4FF0000C0B0E5E
:101AE00004BF09020CF1080C0B0F04BF09010CF133
:101AF000040C8B0F04BF89000CF1020CCB0F04BF48
:101B000049000CF1010CCCF12003A0EB0C0022FAEF
:101B100003F302FA0CF241EA030100F101007047FD
:101B200020F07F4C80EA030023F07F47ACEB0703F3
:101B300003F57C5300F0004003F1FF032DE98049D9
:101B40004FEA154B09B44FEA144325EA0B4E24EA39
:101B500003480FF2042606EB132749083E785FEA94
:101B6000320203FB0667C7F5000707FB06F64FEADC
:101B700054374FEAD64606F1020607FB066CCCF155
:101B8000005C4FEA1C472CEA074C07FB06F40CFBF1
:101B900006F504EB15464FEA961634BF00204FF0C9
:101BA00000404FEAD13706FB07FC4FEA1C4C0CFB08
:101BB0000BF7D21B03FB0CF761EB07010CFB0EF7D5
:101BC000B0EB074072EB17420CFB08F734BFA2EBF7
:101BD0000742B2EB074261EB17414FEA0C444FEA70
:101BE000910706FB07FC4FEA1C4C0CFB0BF7B0EB14
:101BF000C74072EB573203FB0CF734BFA2EBC7426E
:101C0000B2EBC74261EB57310CFB0EF7B0EBC700EC
:101C100072EB57720CFB08F734BFA2EBC702B2EBB2
:101C2000C70261EB5771039F4FEA816141EA92114C
:101C300004EBCC044FEAD1374FEA826206FB07FC83
:101C400042EA90124FEA80604FEA1C4C0CFB0BF703
:101C5000D21B03FB0CF761EB07010CFB0EF7B0EB9B
:101C6000074072EB17420CFB08F734BFA2EB0742A8
:101C7000B2EB074261EB17414FEA8C554FEA9107EF
:101C800004EB9C2406FB07FC4FEA1C4C0CFB0BF7F7
:101C9000B0EBC74072EB573203FB0CF734BFA2EB3B
:101CA000C742B2EBC74261EB57310CFB0EF7B0EB0A
:101CB000C70072EB57720CFB08F734BFA2EBC702E8
:101CC000B2EBC70261EB577115EB4C254FEA81610E
:101CD00041EA92114FEA82624FEAD13742EA90120A
:101CE00006FB07FC44F100044FEA80604FEA1C4CFD
:101CF0000CFB0BF7D21B03FB0CF761EB07010CFB92
:101D00000EF7B0EB074072EB17420CFB08F734BF3D
:101D1000A2EB0742B2EB074261EB174115EB1C1532
:101D20004FEA813141EA92414FEA823242EA9042DF
:101D30004FEA80304FEA0C7644F1000448EA03434E
:101D40004EEA0B484FF0000EB2EB080C71EB0307A4
:101D500024BF624639464EEB0E0E4FF0000B0018C2
:101D6000524149414BEB0B0BB2EB080C71EB0307F3
:101D70007BF1000B24BF624639464EEB0E0E4FF04E
:101D8000000B0018524149414BEB0B0BB2EB080C16
:101D900071EB03077BF1000B24BF624639464EEB23
:101DA0000E0E51EA020718BF46F0010616EB0E763A
:101DB00055F1000254F1000103D5BDE88901BDE8E9
:101DC0000088BDE88901BDE80048B619524141EBE1
:101DD0000101A3F10103704780807F7E7D7C7B7AC7
:101DE0007978777676757473727171706F6E6E6DC7
:101DF0006C6C6B6A6A69686867666665646463636D
:101E000062616160605F5F5E5E5D5D5C5C5B5B5AF2
:101E10005A5959585857575656555555545453535F
:101E200052525251515050504F4F4F4E4E4D4D4DBA
:101E30004C4C4C4B4B4B4A4A4A4949494848484705
:101E40004747474646464545454444444443434343
:101E50004342424242414141002B9C4630D47700EC
:101E60002BD01CB54FEA370703B44FF010004FF0EA
:101E70001001BAF1000F06D0BCF1000FDCBF40F03A
:101E8000080040F008014FF000000FBCBDE8104012
:101E90000BF1010BBBF1010F08BF5FEA170722BF6F
:101EA00012F1010211F101014FF0004143F1000371
:101EB00000F0004043EA00007047F9D35708D0E72C
:101EC00046EA064613F1400F4FEA16461FDD13F1AE
:101ED000200FDFBF16430A46002120335B42BED0ED
:101EE000C3F1200746EA064602FA07F74FEA16460C
:101EF00046EA0706C3F1200722FA03F201FA07F7C0
:101F000021FA03F14FF0000342EA0702A7E746EA8D
:101F1000020646EA06464FEA164646EA0106BCBFF6
:101F200046EA0646360C4FF000034FF000024FF031
:101F3000000194E72DE9804C9A46934670B491E8ED
:101F4000380007C831EA400C48BF34EA430C03D5D7
:101F5000FFF7E6FDFFF780FFF0BCBDE8008C2DE940
:101F6000804C9A46934670B491E8380007C810F048
:101F7000804F08BF13F0804F03D100F005F8FFF742
:101F80006BFFF0BCBDE8008C20F07F4780EA0300C7
:101F900023F07F4C07EB0C03A3F57C5300F00040CB
:101FA000A3F1FE0392F0000F00F0B38095F0000F54
:101FB00000F077802DE901494FEA11404FEA1446BD
:101FC00021EA004800FB06FC24EA064708FB06F667
:101FD00007FB08F800FB07F718EB06484CEB164C1C
:101FE0004FEA124B18EB07484FEA15464CEB1740E7
:101FF00022EA0B4E0BFB06FC25EA06470EFB06F613
:1020000007FB0EFE0BFB07F71EEB064E4CEB164CC8
:102010004FF000061EEB074E4CEB174B18EB0B086E
:1020200040F1000018EB0E0B58EB000840F10000E7
:102030008F1A4FF000013CBFC943661B14BFB5EBBC
:10204000040C00213CBFC943F61B4FEA17444EEA7B
:102050008E0E27EA04454FEA1C4704FB07622CEA70
:10206000074C05FB07F70CFB05F604FB0CFC16EB15
:10207000074642EB174216EB0C4642EB1C421BEBA9
:10208000060658EB0202414146EA9E0601D5BDE82C
:102090000189B619524141EB0101A3F10103BDE8E9
:1020A00001894FEA14454FEA114724EA054621EA1F
:1020B000074C05FB07F406FB07F70CFB06F105FBD5
:1020C0000CFC11EB074144EB17444FEA124711EBAC
:1020D0000C4144EB1C4422EA074C05FB07F206FBCB
:1020E00007F70CFB06F605FB0CFC16EB074642EB6C
:1020F000174216EB0C4642EB1C456A1854F10001DE
:1021000048BF7047B619524141EB0101A3F10103E9
:10211000704795F0000F37D04FEA11424FEA14474D
:1021200021EA024624EA074C02FB07F106FB07F707
:102130000CFB06F402FB0CFC14EB074441EB1741CB
:102140004FEA154714EB0C4441EB1C4125EA074CC0
:1021500002FB07F506FB07F70CFB06F602FB0CFC7F
:1021600016EB074645EB174516EB0C4645EB1C42B4
:10217000121951F1000148BF7047B619524141EBA5
:102180000101A3F1010370474FEA14454FEA1147DB
:1021900024EA054621EA074C05FB07F106FB07F791
:1021A0000CFB06F24FF0000605FB0CFC12EB07429D
:1021B00041EB174112EB0C4251EB1C4148BF7047F9
:1021C000921841EB0101A3F10103704770B5044679
:1021D00000688168C943C90717D1816821F00101EE
:1021E000816000F0B7FC05460AE000BF00F0B2FCD9
:1021F000401B022804D920688068C043C00706D06D
:1022000020688068C043C007F0D0002070BDA06A7D
:1022100040F01000A062E06A40F00100E06201209E
:1022200070BDFEE701F060BA10B5036800225A6283
:102230004FF47A7303E00268546A9C42FCD3491E4F
:1022400089B2F8D210BD036800225A620068426A5F
:102250008A42FCD370470000014800F097BA0000A2
:1022600088010020014800F091BA000044010020DC
:102270000068FFF7D9BF0068FFF7E5BF30B48260A0
:102280008380016030BC0846FFF7CCBF2DE9F041E8
:102290000746002500F057F800240126384600F0D4
:1022A00061F80021384600F0C0F801213846FFF7F8
:1022B000E2FF384600F047F8384600F00FF818B152
:1022C00006FA04F02843C5B232213846FFF7D3FF9F
:1022D000641C082CE2DB2846BDE8F0818188806818
:1022E00000F02EBC70B5044600F04DF801212046E8
:1022F000FFF7BEFFCC21204600F066F844212046BF
:1023000000F062F8C8212046FFF7B2FF204600F037
:102310003AF801212046FFF7ABFFCC21204600F020
:1023200053F8BE21204600F04FF82046FFF7AEFFDD
:1023300005462046FFF7AAFF45EA0020000902F003
:10234000F5F8E06070BD1FB5002100910191029188
:10235000039181880091012102918068694600F013
:10236000FFFA1FBD1FB50021009101910291039159
:1023700081880091012101910221039180686946C1
:1023800000F0EEFA1FBD70B505460024FFF7EAFF26
:102390000021284600F049F84FF4F0712846FFF775
:1023A0006AFF2846FFF7CFFF50212846FFF763FF5B
:1023B0002846FFF793FF00B901244FF4C87128465F
:1023C000FFF759FF204670BD2DE9F0410E46074644
:1023D000FFF7C8FF0024012505FA04F03042384613
:1023E00011D0FFF7BFFF0021384600F01EF8012191
:1023F0003846FFF740FF3846FFF7A5FF3221384641
:10240000FFF739FF0CE0FFF7ADFF0021384600F081
:102410000CF832213846FFF72EFF3846FFF793FFBE
:10242000641C082CD8DBBDE8F08183880A468068EC
:10243000194600F08ABB704770470000F8B50024C9
:10244000009490F824202546012A12D0012280F819
:1024500024204A681F23072A0DD20668776B521E74
:1024600002EB820293409F430B6893401F437763C4
:1024700019E00220F8BD06680D2A0AD2376BD21F78
:1024800002EB820293409F430B6893401F433763E4
:1024900009E0F76A0D3A02EB820293409F430B6812
:1024A00093401F43F7620A68072306680A2A0AD383
:1024B000F7680A3A02EB420293409F438B689340CD
:1024C0001F43F76008E0376902EB420293409F43E5
:1024D0008B6893401F4337610A68102A01D0112A84
:1024E00020D1124B02689A4217D193681B0219D46B
:1024F000936843F4000393600968102912D10C49D2
:102500000C4A0968B1FBF2F101EB8101490000E0DE
:10251000491E00910029FBD104E0816A41F02001AD
:102520008162012480F824502046F8BD0024014037
:102530001000002040420F002DE9F0414FF000074D
:1025400004003D467ED0A06A002628B9E66284F8E1
:102550002460204600F07EF82046FFF737FEA16A8F
:10256000C90600D420B1A06A40F01000A06269E062
:10257000A16A21F4885141F00201A1626268E16917
:10258000237B0A4347EA43010A43A1684FF480775B
:10259000B94209D0012907D05FF0000194F814C0B6
:1025A000BCF1010F02D00AE03946F7E7F3B1A36AA4
:1025B00043F02003A362E36A43F00103E36223686C
:1025C000D3F804C02CF4694C4CEA010CC3F804C0E5
:1025D00021688B68DFF870C003EA0C0313438B603B
:1025E000A168B9420BD0012909D00CE0DFF85CC02A
:1025F000A3690CEB43330B4343F40061DFE7218A0B
:102600000D05A5F580152168CB6A23F470032B43D3
:10261000CB62216889680E4B1940914208D1E6626D
:10262000A16A21F0020141F00101A162BDE8F0813F
:10263000A06A20F0020040F01000A062E06A40F0C2
:102640000100E0620120F1E7FDF7E1FF00E0FFFF9C
:10265000FE0E1FFF00B585B000210091019102918F
:10266000039100680E49884218D10E48816941F4EF
:1026700000718161816901F400710491816941F007
:10268000040181618069694600F004000490012022
:10269000009003200190044800F062F905B000BDED
:1026A00000240140001002400008014010B590F8DD
:1026B00021100022022905D00421816380F8202006
:1026C000012010BD01680B6823F00E030B60016848
:1026D0000B6823F001030B6090F84030C46B0121BC
:1026E00001FA03F3636080F8211080F8202010467F
:1026F00010BD000010B590F821100024022903D06D
:102700000421816301243DE001680A6822F00E0281
:102710000A6001680A6822F001020A601A4A016828
:10272000914201D1012121E0174A1432914201D195
:1027300010211BE0144A2832914201D1891515E07D
:10274000114A3C32914201D189140FE00E4A5032B5
:10275000914202D14FF4803108E00B4A6432914239
:1027600002D14FF4801101E04FF08071064A083A1F
:102770005160012180F82110002180F82010416B68
:1027800001B18847204610BD080002402DE9F05FE6
:10279000C16B0C6801680B68D0F840C0042202FAD3
:1027A0000CF2494DDFF824A1494E4A4FDFF828B119
:1027B000DFF828E122422CD05A072AD50A6892066F
:1027C00003D40A6822F004020A600168A94201D118
:1027D000042219E0514501D1402215E0B14202D155
:1027E0004FF4806210E0B94202D14FF480420BE016
:1027F000594502D14FF4802206E0714502D14FF4D1
:10280000800201E04FF080622F4908394A60C16AB6
:102810003BE04FF0020808FA0CF818EA040F4FF0FA
:1028200000094FF0010235D05FEA837832D50B689A
:102830009B0605D40B6823F00A030B6080F8212067
:102840000168A94201D1022219E0514501D120229B
:1028500015E0B14202D14FF4007210E0B94202D14A
:102860004FF400520BE0594502D14FF4003206E01C
:10287000714502D14FF4001201E04FF0007212498D
:1028800008394A6080F82090816A00291AD0BDE892
:10289000F05F0847082505FA0CF5254212D01B0702
:1028A00010D50B6823F00E030B6090F84010C36B3B
:1028B00002FA01F15960826380F8212080F82090AB
:1028C000016BE2E7BDE8F09F080002401C000240F7
:1028D0003000024044000240580002406C000240B8
:1028E00030B528B308C8134914221944B1FBF2F1DA
:1028F0008900C16310498163022141771A6843F658
:10290000F0718A43D0E900142143D0E902452C43F9
:1029100021430469214344692143846921431143CC
:10292000196000214163012242770177084630BDDA
:10293000012030BDF8FFFDBF0000024070B5044625
:1029400000F008F90546601C02D0044800780444F1
:1029500000F000F9401BA042FAD370BD0400002033
:102960002DE9F84FDFF8B8910024A9F1040B2346B4
:102970000F2709F1040AABF1040EC9E00125A540B7
:102980002A40AA427DD1674ED1F804C0ACEB0608BC
:10299000B44532D014DCBCF1030F3AD009DCBCF1F1
:1029A000000F2AD0BCF1010F1CD0BCF1020F31D1B5
:1029B0001DE0BCF1110F17D0BCF1120F2AD119E0A4
:1029C000B8F5881F19D006DCB8F5803F15D0B8F5EA
:1029D000801F1FD111E0B8F5001F0ED0B8F5041FFD
:1029E00018D10AE0CB6815E0CB681B1D12E0CB685C
:1029F00008330FE0CB680C330CE08B682BB1012B54
:102A00004FF0080303D0456104E0042302E00561B0
:102A100000E00023FF2A01D8064601E000F1040689
:102A20004FEA840501D9A5F12005D6F8008007FA00
:102A300005FC28EA0C0803FA05F548EA0508C6F87B
:102A400000804D68ED0062D5374DAE6946F0010655
:102A5000AE61AD6924F0030605F001050095334D24
:102A600006EB050CDCF80850A607360F07FA06F847
:102A700025EA0805DFF8B880404503D14FF000088B
:102A800017E044E0DFF8AC80404502D14FF0010888
:102A90000FE0DFF8A480404502D14FF0020808E0C3
:102AA000DFF89880404502D14FF0030801E04FF075
:102AB000040808FA06F848EA0508CCF808804D68CA
:102AC000D9F80060ED024D4601D5164300E096436B
:102AD0002E604D68DAF80060AD02554601D5164308
:102AE00000E096432E604D68DBF80060AD035D4664
:102AF00001D5164300E096432E604D68DEF8006075
:102B0000ED03754601D5164300E096432E60641C24
:102B10000D682A46E5407FF431AFBDE8F88F00002C
:102B200008040140000011100010024000000140A4
:102B300000080140000C0140001001400014014059
:102B40008068084000D0012070470AB101617047D9
:102B50000904FBE70148806870470000040000207A
:102B600070B5040004D094F84100002510B106E0CF
:102B7000012070BD84F84050204600F083FF2420DF
:102B800084F841002068C16821F40051C1602046EA
:102B900001F0FCFA2068016921F49041016120688C
:102BA000416921F0220141612068416941F0080139
:102BB00041612068C16841F40051C1606564202012
:102BC00084F8410084F842006563002070BD000075
:102BD00070B5040025D094F83D00002520B984F894
:102BE0003C50204600F04EF9242084F83D00206837
:102BF000016821F0010101602068016841F4004191
:102C000001602068016821F40041016000F00CFBC4
:102C10004D4A6168914201D84C4900E04C498842D4
:102C200001D2012070BD4B492368B0FBF1F15E6811
:102C300026F03F060E435E606368934206D94FF468
:102C4000967359434FF47A73B1FBF3F12368491C2F
:102C50001E6A26F03F06314319626168914210D81E
:102C60004900401EB0FBF1F2521CC2F30B02042AD1
:102C700001D2042022E0B0FBF1F0401CC0F30B00B5
:102C80001CE0A268F2B301EBC10303EB0116431E83
:102C9000B3FBF6F35B1C43F480431B0549D092B3AE
:102CA00001EBC10202EB0111401EB0FBF1F0401C30
:102CB000C0F30B0040F4804040F400402168CA6932
:102CC0004CF6FF739A431043C861D4E907100143DF
:102CD0002068026822F0C00211430160D4E90301B8
:102CE00001432068826848F2FF339A4311438160B0
:102CF000D4E9050108432168CA6822F0FF021043A5
:102D0000C86001E00EE016E02068016841F00101B2
:102D100001602564202084F83D00256384F83E503E
:102D2000002070BD01EB4106431EB3FBF6F35B1CB4
:102D3000B3E70120C2E701EB4101401EB0FBF1F017
:102D4000401CC0F30B00B7E7A086010080841E0082
:102D500000093D0040420F002DE9F84F1F46904604
:102D60008A460446DDF82890FFF7F4FE054694F8FD
:102D70003D0020287FD1192301224049204600959B
:102D800000F078FF002876D194F83C00012872D03A
:102D9000012084F83C0020680168C90703D101685C
:102DA00041F0010101602068016821F400610160C7
:102DB000212084F83D00102084F83E00002626647F
:102DC000C4F824806785608D20852D48E0622B46FD
:102DD0004A465146204600F0D3FE90B9206841692A
:102DE0008069009036E02A464946204600F0E8FF18
:102DF00050B1206C042804D12068016841F40071AE
:102E000001600120BDE8F88F606A216800780861E0
:102E1000606A401C6062618D491E6185218D491E7A
:102E200089B2218522685369DB435B070BD451B11A
:102E300000781061606A401C6062608D401E608591
:102E4000208D401E20852A464946204600F0E6FE99
:102E50000028CED1208D0028C5D154F83D0B016843
:102E600041F400710160202004F81E09E6776677BE
:102E70000020C7E7FFE70220C4E7000002001000BF
:102E80000000FFFF10B586B0002100910191029172
:102E9000039100680F4988421AD10F4CA06940F095
:102EA0000800A061A069694600F008000490C020F5
:102EB000009012200190032003900848FFF750FD76
:102EC000E06940F40010E061E06900F40010049053
:102ED00006B010BD0054004000100240000C01403C
:102EE0000248816802781144816070470400002024
:102EF000074810B5016841F010010160032000F09F
:102F000075F80F2000F006F800F024F8002010BD3E
:102F10000020024070B50D4D04464FF47A712878B8
:102F2000B1FBF0F00A490968B1FBF0F000F052FB88
:102F300048B9102C07D200222146501E00F036F866
:102F400000206C6070BD012070BD000004000020F6
:102F5000100000200C4808B5816941F00101816131
:102F6000816901F001010091C16941F08051C161A5
:102F7000C06900F0805000900448416821F0E06191
:102F800041F00071416008BD0010024000000140A6
:102F9000002809DB00F01F02012191404009800058
:102FA00000F1E020C0F8001170470000F0B40E4BB3
:102FB0001B680C46C3F30223C3F10705042D00D997
:102FC0000425191D072901D2002300E0DB1E01267C
:102FD00006FA05F1491E214099409E40761E164092
:102FE0003143F0BC01F049B90CED00E0064900F0B6
:102FF000070208684FF6FF03184040EA0220034A20
:1030000010430860704700000CED00E00000FA0576
:103010002DE9F84305460078354CC00754D0E069E7
:103020000026C00008D4E06940F08050E061E0690B
:10303000012600F0805000902E480168C90512D486
:103040000168804641F480710160FFF783FD074607
:1030500005E000BFFFF77EFDC01B642823D8D8F829
:103060000000C005F6D5206A10F4407021D0A98870
:1030700001F4407181421CD0206A1F49012220F4D2
:1030800040700A6000220A602062C00711D0FFF77A
:1030900061FD074641F2883808E000BFFFF75AFD9E
:1030A000C11B414502D90320BDE8F883206A80078F
:1030B000F4D5206A696820F44070084320621EB18C
:1030C000E06920F08050E0612878800705D56068CD
:1030D000A96820F44040084360602878C00605D500
:1030E0006068E96820F48000084360600020DBE746
:1030F0000010024000700040400442422DE9F047B9
:103100000F46050061D0434E306800F00700B8421A
:1031100009D2306820F0070038433060306800F092
:103120000700B84251D128683B4C810712D54007AF
:1031300003D5606840F4E06060602878000703D53C
:10314000606840F4605060606068A96820F0F0003A
:10315000084360602878C00728D06868012810D02C
:103160002168022810D0890700292EDA616821F031
:10317000030101436160FFF7EDFC804641F28839AD
:103180000DE021688903EFE78901EDE7FFF7E2FC35
:10319000A0EB0801494502D90320BDE8F08760682B
:1031A000696800F00C00B0EB810FEFD1306800F0DF
:1031B0000700B8420BD9306820F007003843306070
:1031C000306800F00700B84201D00120E5E7287818
:1031D000400705D56068E96820F4E0600843606056
:1031E0002878000706D56068296920F4605040EA15
:1031F000C100606000F038F86168084AC1F303114B
:10320000515CC8400649086006480068FFF782FE26
:103210000020C2E70020024000100240F8450008EC
:103220001000002008000020044805490068496893
:10323000044AC1F30221515CC840704710000020CD
:103240000010024008460008044805490068496823
:10325000044AC1F3C221515CC840704710000020ED
:1032600000100240084600080E4A51680E4801F05E
:103270000C03042B11D0082B0FD10C48C1F383434E
:10328000C903C05C0AD55168084AC1F34041921E87
:10329000515C054A5043B0FBF1F070470449484384
:1032A000704700000010024000127A00E845000854
:1032B00000093D002DE9F84F040070D02078C04D82
:1032C000C00749D06868C0F38100012807D068684A
:1032D000C0F38100022809D16868C00306D52868B8
:1032E000800339D560680028E7D035E06068B0F524
:1032F000803F0BD010B1B0F5A02F11D0286820F47A
:1033000080302860286820F4802002E0286840F49B
:1033100080302860606890B1FFF71CFC06460AE028
:10332000286840F480202860F0E700BFFFF712FC17
:10333000801B642873D828688003F7D50CE0FFF75A
:1033400009FC064605E000BFFFF704FC801B64286B
:10335000F0D828688003F7D420789A4E80074FF081
:1033600001094FF0000839D5686810F00C0F07D03C
:103370006868C0F38100022809D16868C00306D4D8
:103380002868800714D52069012808D110E0206939
:10339000B0B1C6F80090FFF7DDFB074605E00AE193
:1033A000FFF7D8FBC01B0228C4D828688007F7D5D0
:1033B0002868616920F0F80040EAC10028600DE04B
:1033C000C6F80080FFF7C6FB074604E0FFF7C2FB24
:1033D000C01B022823D828688007F7D4207800076C
:1033E0002CD57948A169D9B1C0F80090FFF7B2FB9C
:1033F000074604E0FFF7AEFBC01B02280FD8686A3F
:103400008007F7D571484FF4FA510068B0FBF1F02E
:10341000009000BF0098411E0091FAD20EE080E0BB
:10342000C0F80080FFF796FB074604E0FFF792FB29
:10343000C01B022875D8686A8007F7D42078400737
:1034400060D5E8690027C00008D4E86940F08050E2
:10345000E861E869012700F0805000905C4801684D
:10346000C90513D40168834641F480710160FFF7F8
:1034700071FB824606E000BFFFF76CFBA0EB0A0081
:1034800064284ED8DBF80000C005F5D5E0680128B7
:103490000AD008B1052813D0286A20F0010028625C
:1034A000286A20F0040002E0286A40F00100286247
:1034B000E06841F2883B98B1FFF74CFB82460BE095
:1034C000286A40F004002862EEE700BFFFF742FBE5
:1034D000A0EB0A0159455AD8286A8007F6D50CE0B6
:1034E000FFF738FB824605E0FFF734FBA0EB0A014B
:1034F00059454CD8286A8007F6D41FB1E86920F0F6
:103500008050E861E06988B36968C1F381010229EC
:1035100044D00228C6F8608004D0FFF71BFB0446A5
:1035200038E034E0FFF716FB074604E0FFF712FB34
:10353000C01B02282BD828688001F7D4206AB0F578
:10354000803F05D16868A16820F4003008436860B6
:10355000D4E908010843696821F4741108436860DC
:10356000C6F86090FFF7F6FA044606E025E000BFD3
:10357000FFF7F0FA001B022809D828688001F7D568
:103580001BE000BFFFF7E6FA001B022802D9032068
:10359000BDE8F88F28688001F4D40EE00128F7D048
:1035A0006868226A00F48031914204D1616A00F4B3
:1035B0007010884201D00120EAE70020E8E700000F
:1035C00000100240000042428004424210000020ED
:1035D0000070004010B5401EB0F1807F01D3012083
:1035E00010BD4FF0E02460610F21601700F045FE30
:1035F0000020A06107202061002010BD70B590F868
:103600003C20012A26D0012480F83C40022280F888
:103610003D2003685A689D6822F070060A683243AC
:103620005A600D4B02689A4208D0B2F1804F05D023
:103630000A4B9A4202D00A4B9A4204D1496825F0BB
:1036400080031943916080F83D40002180F83C10D0
:10365000084670BD022070BD002C014000040040EF
:103660000008004010B5040003D094F83D0010B1EC
:1036700007E0012010BD002084F83C00204600F047
:103680001FF8022084F83D00211D206800F07CFC1A
:10369000012084F8460084F83E0084F83F0084F856
:1036A000400084F8410084F8420084F8430084F824
:1036B000440084F8450084F83D00002010BD00005F
:1036C00008B500680649884208D10648C16941F03A
:1036D0000401C161C06900F00400009008BD000051
:1036E000000800400010024090F83D10012901D070
:1036F00001207047022180F83D1000680B49884284
:1037000008D0B0F1804F05D00949884202D009495C
:10371000884204D1816801F00701062903D00168BD
:1037200041F001010160002070470000002C0140C1
:10373000000400400008004070B5044690F83C00CA
:103740000025012817D0012684F83C60022084F867
:103750003D002068826822F0770222F47F42826076
:103760000868502838D00DDC20284FD005DC90B3F5
:10377000102811D14AE0022070BD302846D04028E0
:103780000AD13BE060282FD070280DD0B0F5805FC3
:1037900003D0B0F5005F12D0012584F83D60002011
:1037A00084F83C00284670BDCB68D1E9012120682F
:1037B00000F026FC2068816841F0770109E0CB68C1
:1037C000D1E90121206800F01BFC2068816841F4E8
:1037D00080418160E1E719E0CA684968206800F02B
:1037E00021FC5021206806E0CA684968206800F082
:1037F0002AFC6021206800F00DFCCEE7CA68496809
:10380000206800F00FFC40212068F4E722680146A0
:103810001046F0E770477047F8B50168044608683D
:10382000CA684B6910F00F0F4FF0000559D003F034
:10383000010602F49077374365D0C10705D0D10562
:1038400003D5616C41F001016164410705D5D907D9
:1038500003D0616C41F002016164810705D5D9078D
:1038600003D0616C41F004016164010707D502F0E7
:103870002001314303D0616C41F008016164616C47
:1038800000293AD0800604D5900602D5204600F0E3
:103890001BFC20684069616CC0F38010090700D4EC
:1038A00060B3204600F0E9FB20684069400621D55E
:1038B0002068143050E8001F21F0400140E8001259
:1038C000002AF5D1E06BA8B16D494163E06BFEF7CA
:1038D00011FF002811D0E06B416B01B0BDE8F04052
:1038E000084783060FD593060DD52046BDE8F8405E
:1038F00000F0EABB2046FFF78EFFF8BD2046FFF739
:103900008AFF6564F8BD266B2023012E7CD1C60694
:103910007AD5D60678D508684868009048694FF08F
:103920000206400640D5E16B086840680004000CC0
:10393000E8D0A28D8242E5D9E085886920282DD083
:1039400020680C3050E8001F21F4807140E800121C
:10395000002AF5D12068143050E8001F21F0010141
:1039600040E80012002AF5D12068143050E8001F0A
:1039700021F0400140E80012002AF5D184F84230DD
:10398000256320680C3050E8001F21F0100140E84A
:103990000012002AF5D1E06BFEF788FE6663A08D69
:1039A000E18D401A81B22AE0A08DE18D401A81B2EA
:1039B000E08D0028A6D00029A4D022680C3252E85D
:1039C000000F20F4907042E80007002FF5D1206826
:1039D000143050E8002F22F0010240E80027002FA9
:1039E000F5D184F84230256320680C3050E8002F70
:1039F00022F0100240E80023002BF5D16663204638
:103A0000FFF708FFF8BDFFE705062BD5150629D5FA
:103A100094F841002128F5D1A068B0F5805F01D16C
:103A20002069B0B1206A411C216221680078486099
:103A3000E08C401E0004000CE084E3D12068C168E3
:103A400021F08001C1602068C16841F04001C1607F
:103A5000D8E7206A0088C0F308004860206A801C0C
:103A60002062E5E74006CDD55006CBD5CA68204692
:103A700022F04002CA6084F8413000F068F8C1E7E3
:103A80006B400008F0B585B0002406460094019410
:103A90000294039400682749884249D126488169E5
:103AA00041F480418161816901F48041049181691F
:103AB00041F0040181618069694600F004000490CE
:103AC0004FF40070009012200190032003901B48D7
:103AD000FEF746FF1B4D1A488027C5E90004C5E9DB
:103AE00002472C616C61AC612846EC61FEF7F8FE80
:103AF00008B1FEF7A1FCF5636E621148124D14384F
:103B000001C5102091C5104845F810496C61AC61A1
:103B1000EC61FEF7E5FE08B1FEF78EFCB56300220E
:103B2000114625206E62FFF741FA2520FFF730FA93
:103B300005B0F0BD0038014000100240000801400F
:103B4000580002404401002088010020704770475F
:103B5000FEE701684A69D24352050FD46FF48062D0
:103B60004A61002140F8301F2022427381730269AC
:103B700042F0040202610173012070470020704787
:103B8000F8B50446C06A1E460D461746082807D0F9
:103B9000012805D010F5803F02D0206B122804D1F7
:103BA0002068016841F480710160134600224FF0E3
:103BB00001112046009600F05DF840B120680068D1
:103BC000C00502D54FF4007020640320F8BD2069C1
:103BD000B0F5804F0ED00620216800EAD51040F0E5
:103BE000F000086133463A460B49204600F08AF857
:103BF00078B902E005F0FE0000E0E8B22168086153
:103C0000054933463A46891F204600F07BF80028D4
:103C1000DCD00120F8BD00000800010070B5164698
:103C20000D4604461EE02046FFF793FF08B1012031
:103C300070BD681C16D0FEF78DFF801BA84200D80F
:103C400085B920684069C04340070BD5002044F87F
:103C5000300F20216173A073216941F0200121619F
:103C60002073E4E720684069C0434007DBD40020AC
:103C700070BD00002DE9F047984617460D460446F2
:103C8000C1F30746DDF820902AE000BFB8F1FF3FFE
:103C900026D0FEF75FFFA0EB0901414502D8B8F13D
:103CA000000F1DD12068012E16D0806925EA000082
:103CB0000004000C12D00020B84211D1002044F8BA
:103CC000300F20216173A073216941F0200121612F
:103CD00020730120BDE8F0874069E7E70120EBE7AA
:103CE0002068012E0AD0806925EA00000004000C3B
:103CF00006D00020B842C9D00020EBE74069F3E7C6
:103D00000120F7E72DE9F047984616460D46044690
:103D10004FF000094FF0200AC1F3074723E0206865
:103D20004069C043400515D42068016841F4007122
:103D3000016021686FF480604861C4F8309084F8B5
:103D40003DA084F83E90216C41F00401216484F888
:103D50003C9021E0701C06D0FEF7FCFEA0EB0800B2
:103D6000B04203D816B1012F1FD021E02068012FE7
:103D700015D0806925EA00000004000C18D000BFAF
:103D800044F8309F84F80DA084F80E90216941F02A
:103D90002001216184F80C900120BDE8F087406982
:103DA00025EA00000004000CEAD12068406901E027
:103DB0002068806925EA00000004000CAFD1ECE720
:103DC00070B516460D4604461EE02046FFF7C1FEBC
:103DD00008B1012070BD681C16D0FEF7BBFE801B29
:103DE000A84200D885B920684069C04300060BD5B9
:103DF000002044F8300F20216173A073216941F045
:103E0000200121612073E4E720684069C043000677
:103E1000DBD4002070BD00003EB500240D480094A6
:103E2000019402940A4984600160047304750125B9
:103E300005614FF460214460C161FEF77DFBCDE96F
:103E40000045694603480294FEF7F8FA3EBD0000BB
:103E5000002401402000002070B586B000241848DE
:103E60000094019402940394816941F020018161DE
:103E7000816901F020010491816941F004018161AF
:103E8000816901F004010491816941F008018161B7
:103E900080690C4E00F008004FF480550490002219
:103EA00029463046FEF751FE01200095CDE9010478
:103EB0000220039069463046FEF752FD06B070BD01
:103EC00000100240000C014010B586B000241248DA
:103ED000009401940294039404940E4905940160A3
:103EE0000721C0E901144FF6FF71C0E90314846192
:103EF000FFF7B8FB4FF48050009069460648FFF783
:103F00001BFC049404A904480594FFF777FB06B052
:103F100010BD000000080040A4000020FEE7FEE7FE
:103F200070477047FEF7DCBF30B593B02821684674
:103F3000FCF7CEFA14210AA8FCF7CAFA00240120E3
:103F40000F9410941194010412948DE813000490BE
:103F5000CDE90814022507956846FFF7ABF90F2055
:103F6000CDE90A0580200C90C000CDE90D040021A8
:103F70000AA8FFF7C3F80FA80F951194FFF748F8A8
:103F800013B030BD70470000F0B50268194B1A4CF1
:103F90001A4D4FF08047984205D0B84203D0A04256
:103FA00001D0A84203D122F070064A6832439842F9
:103FB00005D0B84203D0A04201D0A84203D122F4D8
:103FC0004074CA6822434C6922F080022243026096
:103FD0008A68C2620A688262984201D109690163F3
:103FE000012141610169C90703D0016921F0010183
:103FF0000161F0BD002C01400004004000080040B9
:1040000010B5846842EA032224F47F440A43224321
:10401000826010BD826822F070020A4342F00701FC
:104020008160704710B5036A046A24F001040462D9
:10403000846924F0F00444EA021423F00A020A43DB
:104040008461026210BD10B5036A046A24F0100492
:104050000462846923F0A00324F4704444EA023229
:1040600043EA01118261016210BD10B5406A00216E
:10407000C185C184FFF7CFFB10BD01680C3151E849
:10408000002F22F4907241E80023002BF5D1016843
:10409000143151E8002F22F0010241E80023002BE7
:1040A000F5D1016B012909D101680C3151E8002FCC
:1040B00022F0100241E80023002BF5D1202180F8E6
:1040C000421000210163704708B590F84210222980
:1040D00001D0022008BD82684FF480539A4201D17A
:1040E000016921B1816A9A421BD04AB10AE0026893
:1040F000816A5268C2F308020A80816A891C08E05A
:10410000026972B10268526802F07F020A70816A25
:10411000491C8162C18D491E0904090CC18503D067
:104120001BE002685268F1E70168CA6822F02002C9
:10413000CA600168CA6822F48072CA6001684A696C
:1041400022F001024A61202180F8421000214163DF
:10415000026B012A03D0FFF7F9FC002008BD0163C0
:1041600001680C3151E8002F22F0100241E80023D1
:10417000002BF5D101680A68D20602D50A684968A1
:104180000091818DFFF746FBE7E7000070B504461C
:1041900000680169E26821F440511143016121691D
:1041A000A0680843616908432168CA6841F20C634A
:1041B0009A430243CA6020684169A26921F44071B0
:1041C000114341611E492068884202D1FFF73CF843
:1041D00001E0FFF729F800EBC00101EB0012606875
:1041E00064218000B2FBF0F3B3FBF1F36FF018062B
:1041F0007343B2FBF0F5B2FBF0F605EB8305322317
:1042000003EB0515B5FBF1F5B6FBF1F605F0F0058E
:1042100005EB0615B2FBF0F6B2FBF0F0B0FBF1F0E7
:104220006FF01802504306EB800003EB0010B0FB68
:10423000F1F0216800F00F002844886070BD000094
:10424000003801400148FFF7E7BA0000EC00002009
:10425000FEE7490050EAC12018BF04204A0D18BFEC
:1042600040F0010040F2FF72B2EB515F08BF40F036
:104270000200012808BF052070470907090E002821
:1042800004DB00F1E02080F80014704700F00F001C
:1042900000F1E02080F8141D704730380A2801D260
:1042A00001207047002070478A68002A01DCFCF773
:1042B0007FBF521E8A604A68C0B2531C4B601070A8
:1042C000704710B5802000F015F80024202000F081
:1042D00031F8641C462CF9DB10BD10B1012805D162
:1042E00002E041F0800101E041F0C001C8B200F0FD
:1042F00001B800001CB500F0F00141F00C028DF88F
:10430000042041F0080100018DF8051040F00C0177
:104310008DF8061040F008008DF80700642000902A
:10432000042301AA4E210248FEF716FD1CBD000021
:10433000500000201CB500F0F00141F00D028DF896
:10434000042041F0090100018DF8051040F00D0135
:104350008DF8061040F009008DF8070064200090E9
:10436000042301AA4E210248FEF7F6FC1CBD000002
:104370005000002010B5044602E0641CFFF7DAFF8D
:1043800020780028F9D110BD86B0FEF7B1FDFFF707
:10439000CBFDFFF761FD3548416941F00101416105
:1043A0004069002200F00100009011460E20FEF747
:1043B000FDFD0E20FEF7ECFD002211460F20FEF75A
:1043C000F5FD0F20FEF7E4FD2A482949002401608D
:1043D0002949C0E901144FF48041C0E90341446117
:1043E0008461C4610462FEF7F3FBFFF76DFD2148B1
:1043F00022499C3001604FF4E131C0E901140C21E5
:10440000C460C0E904418461C461FEF7A9FBFFF701
:1044100003FD18494FF480535431194A01F19000BB
:10442000FDF72CFF174C4FF4FA7540F6B8361148DB
:10443000E430FDF757FF20602846FEF77FFAFFF7CC
:1044400040FF00210846FFF748FF206800F042F8CF
:1044500002460B460CA16846FBF7DCFE6846FFF7F8
:1044600089FF3046FEF76AFAE1E7000000100240DB
:104470000054004050000020A08601000038014098
:10448000000C0140000000204E6869657420646FD4
:104490003A20252E326620430000000010B5002986
:1044A0000AD00878002807D005487844FDF73AF884
:1044B000002801D0002010BD0248784410BD000043
:1044C000860200007E0200000808A0F500114FEAF5
:1044D0003101704743004FEAD30C4FEA3C0C434094
:1044E0001FBF40070CF1605113F0FE4F70471CF0E6
:1044F000006F03D100200CF0004170470CF0004326
:1045000043EA507010B540EACC0000F022F800BF3A
:10451000000000924FEA0001FFF7D6BF4FF00041C4
:104520004FF00000A1F5002170470000B0FA80F3C1
:1045300010FA03F2C3F19D030AD0D90501EB122052
:10454000530638BF704700F1010008BF20F001009A
:1045500070470EF1020E2EF0030E5EF8044B24425B
:1045600004D44FEA4102B2F17F4F11D84FEA400321
:10457000B3F17F4F0CD80ED14FEAD07CB2F17F4F10
:104580000CEB4C0C0CF1020C08BF4CEBD17C04E0A2
:104590004FF0080C01E04FEAD17C0CEB4C0324FAFD
:1045A00003F404F00704B4F1040C06D20EEB840CFF
:1045B000BDE810404CF0010C6047DFE80CF0070844
:1045C00002024FF00040A0F5800010BD08464200F6
:1045D00018BFD2F1807288BF00F0004010BDFCF718
:1045E000D3B8FCF707BA010202030405060708095D
:1045F0000A0B0C0D0E0F1010000000000000000050
:104600000102030406070809000000000102030478
:1046100030313233343536373839414243444546F8
:1046200040305800303132333435363738396162F2
:1046300063646566403078000400000800000000F4
:1046400000000002000100001030313233343536F2
:1046500037383961626364656678700030313233AF
:1046600034353637383941424344454658500000C6
:1046700002400000000000A0000000000540000013
:10468000000000C8000000000C4000000000409C3A
:1046900000000000194000000020BCBE0000000027
:1046A00034400000BFC91B8E00000004B54000006C
:1046B000504BCFD06607E2CF010000006C410000F4
:1046C0003E8251AADFEEA73401000000D94200006B
:1046D000DCB5A0E23A301F97FFFFFFFFB4450000B2
:1046E000FD25A0C8E9A3C14FFFFFFFFFFF3F00006A
:1046F0000000008000000000FF3F0000000000807C
:10470000000000003A7474003A7474003A74740043
:104710004C4700080000002020000000280100088D
:104720006C47000820000020080900004401000830
:104730001C00000043000000F8FFFFFF0C00000019
:104740000E0000000F0000002E000000000000001E
:1047500001000000100000000000000000127A00BC
:0C4760000000000000000000000000004D
:04000005080000ED02
:00000001FF
