:020000040800F2
:1000000000500020C5170008ED150008F315000882
:10001000F9150008FF15000805160008000000008B
:100020000000000000000000000000000B160008A7
:100030001716000800000000231600082F160008FD
:100040000D1800080D1800080D1800080D180008FC
:100050000D1800080D1800080D1800080D180008EC
:100060000D1800080D1800080D1800080D180008DC
:100070000D1800080D1800083D160008511600085C
:100080000D1800080D1800080D1800080D180008BC
:100090000D1800080D1800080D1800080D180008AC
:1000A0000D1800080D1800080D1800080D1800089C
:1000B0000D1800080D1800080D1800080D1800088C
:1000C0000D1800080D1800080D1800080D1800087C
:1000D0000D180008651600080D1800080D18000816
:1000E0000D1800080D1800080D1800080000000089
:1000F0000000000000000000000000000000000000
:0C01000000000000000000005FF808F1A3
:10010C0010B5054C237833B9044B13B10448AFF345
:10011C0000800123237010BD70000020000000003F
:10012C00D85E000808B5034B1BB103490348AFF375
:10013C00008008BD0000000074000020D85E00089C
:10014C0081F0004102E000BF83F0004330B54FEA7C
:10015C0041044FEA430594EA050F08BF90EA020FE9
:10016C001FBF54EA000C55EA020C7FEA645C7FEA7C
:10017C00655C00F0E2804FEA5454D4EB5555B8BF9F
:10018C006D420CDD2C4480EA020281EA030382EA10
:10019C00000083EA010180EA020281EA0303362DA2
:1001AC0088BF30BD11F0004F4FEA01314FF4801C75
:1001BC004CEA113102D0404261EB410113F0004F87
:1001CC004FEA03334CEA133302D0524263EB43033E
:1001DC0094EA050F00F0A780A4F10104D5F1200EDC
:1001EC000DDB02FA0EFC22FA05F2801841F1000137
:1001FC0003FA0EF2801843FA05F359410EE0A5F10B
:10020C0020050EF1200E012A03FA0EFC28BF4CF03B
:10021C00020C43FA05F3C01851EBE37101F00045F1
:10022C0007D54FF0000EDCF1000C7EEB00006EEBFE
:10023C000101B1F5801F1BD3B1F5001F0CD3490888
:10024C005FEA30004FEA3C0C04F101044FEA4452DF
:10025C0012F5800F80F09A80BCF1004F08BF5FEA66
:10026C00500C50F1000041EB045141EA050130BD46
:10027C005FEA4C0C404141EB0101013C28BFB1F558
:10028C00801FE9D291F0000F04BF01460020B1FAA3
:10029C0081F308BF2033A3F10B03B3F120020CDA76
:1002AC000C3208DD02F1140CC2F10C0201FA0CF054
:1002BC0021FA02F10CE002F11402D8BFC2F1200CB9
:1002CC0001FA02F120FA0CFCDCBF41EA0C0190406F
:1002DC00E41AA2BF01EB0451294330BD6FEA0404B8
:1002EC001F3C1CDA0C340EDC04F11404C4F12002A3
:1002FC0020FA04F001FA02F340EA030021FA04F3B5
:10030C0045EA030130BDC4F10C04C4F1200220FA0B
:10031C0002F001FA04F340EA0300294630BD21FA49
:10032C0004F0294630BD94F0000F83F4801306BF0F
:10033C0081F480110134013D4EE77FEA645C18BF03
:10034C007FEA655C29D094EA050F08BF90EA020F9A
:10035C0005D054EA000C04BF1946104630BD91EA92
:10036C00030F1EBF0021002030BD5FEA545C05D195
:10037C004000494128BF41F0004130BD14F58004D4
:10038C003CBF01F5801130BD01F0004545F0FE4148
:10039C0041F470014FF0000030BD7FEA645C1ABF7D
:1003AC00194610467FEA655C1CBF0B46024650EAB4
:1003BC00013406BF52EA033591EA030F41F40021E0
:1003CC0030BD00BF90F0000F04BF0021704730B566
:1003DC004FF4806404F132044FF000054FF000013B
:1003EC0050E700BF90F0000F04BF0021704730B5FC
:1003FC004FF4806404F1320410F0004548BF4042D1
:10040C004FF000013EE700BF42004FEAE2014FEA25
:10041C0031014FEA02701FBF12F07F4393F07F4F00
:10042C0081F06051704732F07F4208BF704793F003
:10043C007F4F04BF41F40021704730B54FF4607416
:10044C0001F0004521F000411CE700BF50EA010219
:10045C0008BF704730B54FF000050AE050EA0102C2
:10046C0008BF704730B511F0004502D5404261EB32
:10047C0041014FF4806404F132045FEA915C3FF473
:10048C00D8AE4FF003025FEADC0C18BF03325FEA10
:10049C00DC0C18BF033202EBDC02C2F1200300FAC1
:1004AC0003FC20FA02F001FA03FE40EA0E0021FAE6
:1004BC0002F11444BDE600BF80F0004002E000BF32
:1004CC0081F0004142001FBF5FEA410392EA030F33
:1004DC007FEA226C7FEA236C6AD04FEA1262D2EB7D
:1004EC001363C1BFD218414048404140B8BF5B4282
:1004FC00192B88BF704710F0004F40F4000020F01B
:10050C007F4018BF404211F0004F41F4000121F030
:10051C007F4118BF494292EA030F3FD0A2F101027A
:10052C0041FA03FC10EB0C00C3F1200301FA03F1B8
:10053C0000F0004302D5494260EB4000B0F5000FDB
:10054C0013D3B0F1807F06D340084FEA310102F19A
:10055C000102FE2A51D2B1F1004F40EBC25008BF4C
:10056C0020F0010040EA03007047490040EB000016
:10057C00013A28BFB0F5000FEDD2B0FA80FCACF117
:10058C00080CB2EB0C0200FA0CF0AABF00EBC25044
:10059C0052421843BCBFD0401843704792F0000F32
:1005AC0081F4000106BF80F400000132013BB5E785
:1005BC004FEA41037FEA226C18BF7FEA236C21D0FB
:1005CC0092EA030F04D092F0000F08BF0846704760
:1005DC0090EA010F1CBF0020704712F07F4F04D12E
:1005EC00400028BF40F00040704712F100723CBF41
:1005FC0000F50000704700F0004343F0FE4040F46B
:10060C00000070477FEA226216BF08467FEA236328
:10061C000146420206BF5FEA412390EA010F40F413
:10062C00800070474FF0000304E000BF10F000435F
:10063C0048BF40425FEA000C08BF704743F0964346
:10064C0001464FF000001CE050EA010208BF704761
:10065C004FF000030AE000BF50EA010208BF7047E8
:10066C0011F0004302D5404261EB41015FEA010CFD
:10067C0002BF84460146002043F0B64308BFA3F1F5
:10068C008053A3F50003BCFA8CF2083AA3EBC253D7
:10069C0010DB01FA02FC634400FA02FCC2F12002F6
:1006AC00BCF1004F20FA02F243EB020008BF20F02D
:1006BC000100704702F1200201FA02FCC2F1200293
:1006CC0050EA4C0021FA02F243EB020008BF20EA88
:1006DC00DC7070474FF0FF0C1CEAD0521EBF1CEAB6
:1006EC00D15392EA0C0F93EA0C0F6FD01A4480EAA4
:1006FC00010C400218BF5FEA41211ED04FF000638D
:10070C0043EA501043EA5111A0FB01310CF00040B8
:10071C00B1F5000F3EBF490041EAD3715B0040EADE
:10072C00010062F17F02FD2A1DD8B3F1004F40EBAE
:10073C00C25008BF20F00100704790F0000F0CF081
:10074C00004C08BF49024CEA502040EA51207F3A45
:10075C00C2BFD2F1FF0340EAC250704740F4000020
:10076C004FF00003013A5DDC12F1190FDCBF00F011
:10077C0000407047C2F10002410021FA02F1C2F1BF
:10078C00200200FA02FC5FEA310040F1000053EA5B
:10079C004C0308BF20EADC70704792F0000F00F0A9
:1007AC00004C02BF400010F4000F013AF9D040EAAF
:1007BC000C0093F0000F01F0004C02BF490011F443
:1007CC00000F013BF9D041EA0C018FE70CEAD15341
:1007DC0092EA0C0F18BF93EA0C0F0AD030F0004CC1
:1007EC0018BF31F0004CD8D180EA010000F0004075
:1007FC00704790F0000F17BF90F0004F084691F033
:10080C00000F91F0004F14D092EA0C0F01D142026C
:10081C000FD193EA0C0F03D14B0218BF084608D135
:10082C0080EA010000F0004040F0FE4040F400007F
:10083C00704740F0FE4040F4400070474FF0FF0C12
:10084C001CEAD0521EBF1CEAD15392EA0C0F93EA59
:10085C000C0F69D0A2EB030280EA010C49024FEAAB
:10086C00402037D04FF0805343EA111143EA101364
:10087C000CF000408B4238BF5B0042F17D024FF41C
:10088C00000C8B4224BF5B1A40EA0C00B3EB510FF7
:10089C0024BFA3EB510340EA5C00B3EB910F24BFE0
:1008AC00A3EB910340EA9C00B3EBD10F24BFA3EB65
:1008BC00D10340EADC001B0118BF5FEA1C1CE0D12D
:1008CC00FD2A3FF650AF8B4240EBC25008BF20F0E0
:1008DC00010070470CF0004C4CEA50207F32C2BF34
:1008EC00D2F1FF0340EAC250704740F400004FF0D1
:1008FC000003013A37E792F0000F00F0004C02BF02
:10090C00400010F4000F013AF9D040EA0C0093F0CB
:10091C00000F01F0004C02BF490011F4000F013B25
:10092C00F9D041EA0C0195E70CEAD15392EA0C0F8D
:10093C0008D142027FF47DAF93EA0C0F7FF470AFC5
:10094C00084676E793EA0C0F04D14B023FF44CAF08
:10095C0008466EE730F0004C18BF31F0004CCAD19D
:10096C0030F000427FF45CAF31F000437FF43CAFD9
:10097C005FE700BF80B582B000AF78607B681B6812
:10098C00184600F08AF900BF0837BD4680BD80B517
:10099C0082B000AF78600B467B807B681B687A88DE
:1009AC001146184600F084F900BF0837BD4680BDDB
:1009BC0080B582B000AF78600B467B807B681B688B
:1009CC007A881146184600F08AF900BF0837BD46F0
:1009DC0080BD80B586B000AF786007F108030022B7
:1009EC001A605A609A60DA607B689B88BB6001234E
:1009FC00FB6002237B617B689B6807F10802114650
:100A0C00184601F0D3FE00BF1837BD4680BD80B537
:100A1C0086B000AF786007F1080300221A605A60B4
:100A2C009A60DA607B689B88BB600023FB600123C3
:100A3C003B617B689B6807F108021146184601F080
:100A4C00B5FE00BF1837BD4680BD80B582B000AF83
:100A5C0078600B46FB707B6898687B689B88FA789B
:100A6C00194602F03EF800BF0837BD4680BD80B580
:100A7C0082B000AF78607B689A687B689B88194667
:100A8C00104602F017F8034618460837BD4680BDDD
:100A9C0080B584B000AF78600023FB737868FFF7F3
:100AAC0098FF00217868FFF7D0FF4FF4F071786859
:100ABC00FFF76DFF7868FFF7AAFF50217868FFF702
:100ACC0066FF7868FFF7D3FF0346002B02D10123A2
:100ADC00FB7301E00023FB734FF4C8717868FFF7D8
:100AEC0056FFFB7B18461037BD4680BD80B584B0E1
:100AFC0000AF78600B46FB707868FFF76AFF002345
:100B0C00FB602BE0FA78FB6842FA03F303F0010375
:100B1C00002B12D07868FFF75CFF00217868FFF794
:100B2C0094FF01217868FFF732FF7868FFF76FFFB9
:100B3C0032217868FFF72BFF0DE07868FFF749FF4B
:100B4C0000217868FFF781FF32217868FFF71FFFDB
:100B5C007868FFF75CFFFB680133FB60FB68072BD1
:100B6C00D0DD00BF00BF1037BD4680BD80B584B05E
:100B7C0000AF78600023FB737868FFF748FF002311
:100B8C00BB6024E07868FFF724FF00217868FFF74A
:100B9C005CFF01217868FFF7FAFE7868FFF737FFF2
:100BAC007868FFF764FF0346002B09D00122BB686D
:100BBC0002FA03F35AB297F90F3013435BB2FB738B
:100BCC0032217868FFF7E3FEBB680133BB60BB687A
:100BDC00072BD7DDFB7B18461037BD4680BD80B593
:100BEC0084B000AFF860B9607A607B80FB687A688B
:100BFC009A60FB687A889A80FB68BA681A60F86811
:100C0C00FFF7B8FE00BF1037BD4680BD80B584B07D
:100C1C0000AF78607868FFF73BFF01217868FFF739
:100C2C00C7FECC217868FFF761FF44217868FFF795
:100C3C005DFFC8217868FFF7BBFE7868FFF728FFD7
:100C4C0001217868FFF7B4FECC217868FFF74EFFDE
:100C5C00BE217868FFF74AFF7868FFF787FF0346E5
:100C6C00FB737868FFF782FF0346BB73BB7B1B02E9
:100C7C001AB2FB7B1BB213431BB2BB81BB891B0992
:100C8C009BB21846FFF7D2FC02467B68DA607B68A1
:100C9C00DB6818461037BD4680BD80B582B000AF0A
:100CAC007860786803F09EF900BF0837BD4680BDB8
:100CBC0080B483B000AF78600B467B807B681B6888
:100CCC0000225A6200BF7B681B685A6A7B889A4272
:100CDC00F9D300BF00BF0C37BD4680BC704780B451
:100CEC0083B000AF78600B467B807B681B6800226A
:100CFC005A6206E000BF7B681B685B6AB3F57A7FBB
:100D0C00F9D37B885A1E7A80002BF3D100BF00BF29
:100D1C000C37BD4680BC704780B586B002AF034629
:100D2C00FB71FB7923F00F03FB73FB791B01BB7386
:100D3C00FB7B43F00C03DBB23B72FB7B43F0080301
:100D4C00DBB27B72BB7B43F00C03DBB2BB72BB7BB5
:100D5C0043F00803DBB2FB7207F108026423009333
:100D6C0004234E21034802F019F800BF1037BD468A
:100D7C0080BD00BFBC00002080B586B002AF03462A
:100D8C00FB71FB7923F00F03FB73FB791B01BB7326
:100D9C00FB7B43F00D03DBB23B72FB7B43F009039F
:100DAC00DBB27B72BB7B43F00D03DBB2BB72BB7B54
:100DBC0043F00903DBB2FB7207F1080264230093D2
:100DCC0004234E21034801F0E9FF00BF1037BD4654
:100DDC0080BD00BFBC00002080B582B000AF802079
:100DEC00FFF79AFF00237B6005E02020FFF7C4FF8C
:100DFC007B6801337B607B68452BF6DD00BF00BF51
:100E0C000837BD4680BD80B582B000AF78603960D0
:100E1C007B68002B03D07B68012B05D009E03B6875
:100E2C0043F080033B6004E03B6843F0C0033B604D
:100E3C0000BF3B68DBB21846FFF76EFF00BF0837F8
:100E4C00BD4680BD80B582B000AF786006E07B689F
:100E5C005A1C7A601B781846FFF78EFF7B681B784C
:100E6C00002BF4D100BF00BF0837BD4680BD000089
:100E7C0080B584B000AF194800F022FE4FF0FF316E
:100E8C00164800F0CBFE0346002B20D1134800F08F
:100E9C00CBFFF860F868FFF7C5FB0346104918460E
:100EAC00FFF718FC03464FF08B411846FFF7C6FCC2
:100EBC000346BB600A49B868FFF7C0FC0346094902
:100ECC001846FFF707FC03467B607B6801E04FF098
:100EDC00000318461037BD4680BD00BF8C000020B3
:100EEC00333353400000C84280B58CB000AF00F0E3
:100EFC0089FC00F059F800F0BBF900F0EDF800F0B7
:100F0C0091F900F017F900F063F900F0A7F84FF42D
:100F1C0080531F4A1F492048FFF761FE1E48FFF708
:100F2C0075FE03461D4A13604FF4FA7000F0CCFCBA
:100F3C00FFF752FF00210020FFF765FF174B1B68DE
:100F4C001846FFF761FA02460B4607F118001449E0
:100F5C0004F028F807F118031846FFF773FFFFF7A2
:100F6C0087FFF86200210120FFF74DFFF86AFFF7B9
:100F7C004BFA02460B46381D0A4904F013F83B1D88
:100F8C001846FFF75FFF40F6B83000F09DFCC5E750
:100F9C00000C014010010020280200203802002023
:100FAC00F05E0008045F000880B594B000AF07F154
:100FBC00280328220021184603F0ECFF07F1140344
:100FCC0000221A605A609A60DA601A613B1D002296
:100FDC001A605A609A60DA600123BB624FF4803366
:100FEC00FB6200233B630123BB6302237B644FF44E
:100FFC008033BB640023FB6407F12803184602F01E
:10100C0025FA0346002B01D000F07EF90F237B61FB
:10101C000223BB618023FB614FF480633B6200239E
:10102C007B6207F114030021184602F091FC034681
:10103C00002B01D000F068F902237B600023FB60D9
:10104C003B1D184602F012FE0346002B01D000F0A7
:10105C005BF900BF5037BD4680BD000080B584B041
:10106C0000AF3B1D00221A605A609A60184B194A57
:10107C001A60174B00229A60154B00221A73144BFE
:10108C0000221A75124B4FF46022DA61104B0022C9
:10109C005A600F4B01221A610D4800F039FC0346CF
:1010AC00002B01D000F030F900237B600123BB60E2
:1010BC000023FB603B1D1946054800F0C1FE0346AA
:1010CC00002B01D000F020F900BF1037BD4680BDC9
:1010DC008C0000200024014080B500AF124B134A55
:1010EC001A60114B124A5A600F4B00229A600E4B39
:1010FC000022DA600C4B4FF480421A610A4B00223A
:10110C005A61094B00229A61074B0022DA61064BA7
:10111C0000221A62044801F0FDFC0346002B01D0AA
:10112C0000F0F2F800BF80BDBC000020005400406D
:10113C00A086010080B586B000AF07F1080300223D
:10114C001A605A609A60DA603B4600221A605A6054
:10115C001D4B1E4A1A601C4B07225A601A4B002268
:10116C009A60194B4FF6FF72DA60174B00221A6126
:10117C00154B00229A61144802F0E4FE0346002B42
:10118C0001D000F0C1F84FF48053BB6007F10803A5
:10119C0019460D4802F070FF0346002B01D000F0F9
:1011AC00B3F800233B6000237B603B46194606489E
:1011BC0003F02EF90346002B01D000F0A5F800BF78
:1011CC001837BD4680BD00BF10010020000800404C
:1011DC0080B500AF114B124A1A60104B4FF4E1323C
:1011EC005A600E4B00229A600C4B0022DA600B4BBB
:1011FC0000221A61094B0C225A61084B00229A6199
:10120C00064B0022DA61054803F060F90346002B17
:10121C0001D000F079F800BF80BD00BF580100205C
:10122C000038014080B582B000AF104B5B690F4AAB
:10123C0043F0010353610D4B5B6903F001037B60C9
:10124C007B68002200210E2001F065F80E2001F0D1
:10125C007EF8002200210F2001F05DF80F2001F034
:10126C0076F800BF0837BD4680BD00BF00100240B5
:10127C0080B588B000AF07F1100300221A605A60E5
:10128C009A60DA601E4B9B691D4A43F02003936100
:10129C001B4B9B6903F02003FB60FB68184B9B699D
:1012AC00174A43F004039361154B9B6903F0040345
:1012BC00BB60BB68124B9B69114A43F008039361F6
:1012CC000F4B9B6903F008037B607B6800224FF493
:1012DC0080510C4801F005FC4FF480533B61012315
:1012EC007B610023BB610223FB6107F110031946EC
:1012FC00044801F05BFA00BF2037BD4680BD00BF3B
:10130C0000100240000C014080B400AF00BFBD468D
:10131C0080BC704780B485B000AF154B9B69144AF4
:10132C0043F001039361124B9B6903F00103BB6013
:10133C00BB680F4BDB690E4A43F08053D3610C4BF7
:10134C00DB6903F080537B607B680A4B5B68FB6056
:10135C00FB6823F0E063FB60FB6843F00073FB6009
:10136C00044AFB68536000BF1437BD4680BC70470D
:10137C00001002400000014080B588B000AF7860DA
:10138C0007F1100300221A605A609A60DA607B68D9
:10139C001B68144A934221D1134B9B69124A43F4A4
:1013AC0000739361104B9B6903F40073FB60FB6843
:1013BC000D4B9B690C4A43F0040393610A4B9B69E8
:1013CC0003F00403BB60BB6801233B6103237B6117
:1013DC0007F110031946054801F0E8F900BF203762
:1013EC00BD4680BD002401400010024000080140B1
:1013FC0080B588B000AF786007F1100300221A6046
:10140C005A609A60DA607B681B68154A934223D154
:10141C00144B9B69134A43F008039361114B9B696E
:10142C0003F00803FB60FB68C0233B6112237B6164
:10143C000323FB6107F1100319460B4801F0B6F9C1
:10144C00084BDB69074A43F40013D361054BDB6996
:10145C0003F40013BB60BB6800BF2037BD4680BDE2
:10146C000054004000100240000C014080B485B0D4
:10147C0000AF78607B681B68094A93420BD1094B1B
:10148C00DB69084A43F00403D361064BDB6903F0C4
:10149C000403FB60FB6800BF1437BD4680BC70477B
:1014AC00000800400010024080B588B000AF7860A2
:1014BC0007F1100300221A605A609A60DA607B68A8
:1014CC001B68404A934278D13F4B9B693E4A43F498
:1014DC00804393613C4B9B6903F48043FB60FB6846
:1014EC00394B9B69384A43F004039361364B9B6933
:1014FC0003F00403BB60BB684FF400733B61122321
:10150C007B610323FB6107F1100319462F4801F09F
:10151C004DF92F4B2F4A1A602D4B00225A602C4B41
:10152C0000229A602A4B8022DA60294B00221A6131
:10153C00274B00225A61264B00229A61244B002231
:10154C00DA61234800F01EFF0346002B01D0FFF7A1
:10155C00DBFE7B681E4ADA631D4A7B6853621E4BB6
:10156C001E4A1A601C4B10225A601B4B00229A60B8
:10157C00194B8022DA60184B00221A61164B00229C
:10158C005A61154B00229A61134B0022DA61124802
:10159C0000F0F8FE0346002B01D0FFF7B5FE7B6888
:1015AC000D4A9A630C4A7B68536200220021252065
:1015BC0000F0B1FE252000F0CAFE00BF2037BD466A
:1015CC0080BD00BF003801400010024000080140FF
:1015DC00A001002058000240E40100204400024019
:1015EC0080B400AFFEE780B400AFFEE780B400AF7C
:1015FC00FEE780B400AFFEE780B400AFFEE780B436
:10160C0000AF00BFBD4680BC704780B400AF00BFC8
:10161C00BD4680BC704780B400AF00BFBD4680BCE7
:10162C00704780B500AF00F033F900BF80BD0000FB
:10163C0080B500AF024800F0B3FF00BF80BD00BF13
:10164C00E401002080B500AF024800F0A9FF00BF04
:10165C0080BD00BFA001002080B500AF024802F0A1
:10166C008DFF00BF80BD00BF5801002080B586B043
:10167C0000AFF860B9607A6000237B610AE0AFF3D9
:10168C0000800146BB685A1CBA60CAB21A707B69EA
:10169C0001337B617A697B689A42F0DB7B68184680
:1016AC001837BD4680BD80B586B000AFF860B96014
:1016BC007A6000237B6109E0BB685A1CBA601B7816
:1016CC001846AFF300807B6901337B617A697B68D4
:1016DC009A42F1DB7B6818461837BD4680BD80B452
:1016EC0083B000AF78604FF0FF3318460C37BD461F
:1016FC0080BC704780B483B000AF786039603B68C1
:10170C004FF400525A60002318460C37BD4680BC7B
:10171C00704780B483B000AF7860012318460C3753
:10172C00BD4680BC704780B485B000AFF860B9602E
:10173C007A60002318461437BD4680BC7047000001
:10174C0080B586B000AF7860144A154BD31A7B6114
:10175C007B693B61134B1B68002B02D1114B124A66
:10176C001A60104B1A687B6813443A699A4207D284
:10177C0003F0E6FB03460C221A604FF0FF3309E03E
:10178C00084B1B68FB60074B1A687B681344054ABF
:10179C001360FB6818461837BD4680BD005000200A
:1017AC00000400003C0200205802002080B400AF6E
:1017BC0000BFBD4680BC7047FFF7F8FF0B480C49D3
:1017CC000C4A002302E0D458C4500433C4188C4291
:1017DC00F9D3094A094C002301E013600432A242F8
:1017EC00FBD303F0B3FBFFF77FFB70470000002037
:1017FC0070000020F45F00087000002054020020EC
:10180C00FEE7000080B500AF084B1B68074A43F0A9
:10181C0010031360032000F073FD0F2000F008F894
:10182C00FFF778FD0023184680BD00BF0020024062
:10183C0080B582B000AF7860124B1A68124B1B78DF
:10184C0019464FF47A73B3FBF1F3B2FBF3F318467A
:10185C0000F08BFD0346002B01D001230EE07B68CA
:10186C000F2B0AD8002279684FF0FF3000F053FD9F
:10187C00064A7B681360002300E0012318460837F2
:10188C00BD4680BD000000200800002004000020A0
:10189C0080B400AF054B1B781A46054B1B681344EC
:1018AC00034A136000BFBD4680BC7047080000208F
:1018BC004002002080B400AF024B1B681846BD46A6
:1018CC0080BC70474002002080B584B000AF7860C7
:1018DC00FFF7F0FFB8607B68FB60FB68B3F1FF3F7C
:1018EC0005D00A4B1B781A46FB681344FB6000BFFB
:1018FC00FFF7E0FF0246BB68D31AFA689A42F7D8A2
:10190C0000BF00BF1037BD4680BD00BF08000020DF
:10191C0080B586B000AF78600023FB7500233B6177
:10192C000023BB600023FB607B68002B01D10123EB
:10193C00BEE07B689B68002B7B689B6A002B09D1FF
:10194C007B680022DA627B68002283F824207868A6
:10195C00FFF712FD786800F0C5FB0346FB757B684A
:10196C009B6A03F01003002B40F09980FB7D002B49
:10197C0040F095807B689B6A23F4885323F0020324
:10198C0043F002027B689A627B685A687B68DB6969
:10199C001A437B681B7B5B001343BA681343BB6021
:1019AC007B689B68B3F5807F03D07B689B68012BB9
:1019BC0002D14FF4807300E000233A6913433B617A
:1019CC007B681B7D012B19D17B681B7B002B09D1FC
:1019DC007B689B69013B5A033B69134343F40063E7
:1019EC003B610BE07B689B6A43F020027B689A6248
:1019FC007B68DB6A43F001027B68DA627B681B68F8
:101A0C005B6823F469417B681B683A690A435A6036
:101A1C007B681B689A68284B13407A681268B9680F
:101A2C000B4393607B689B68B3F5807F03D07B6826
:101A3C009B68012B04D17B681B69013B1B05FB6078
:101A4C007B681B68DB6A23F470017B681B68FA688F
:101A5C000A43DA627B681B689A68184B1340BA68B1
:101A6C009A420BD17B680022DA627B689B6A23F076
:101A7C00030343F001027B689A6218E07B689B6A5F
:101A8C0023F0120343F010027B689A627B68DB6AD6
:101A9C0043F001027B68DA620123FB7507E07B6887
:101AAC009B6A43F010027B689A620123FB75FB7DF5
:101ABC0018461837BD4680BDFDF7E1FFFE0E1FFF2F
:101ACC0080B584B000AF78600023FB737B6893F81B
:101ADC002430012B01D1022398E07B68012283F88A
:101AEC002420786800F0A4FA0346FB73FB7B002BE0
:101AFC0040F087807B689B6A23F4407323F00103DA
:101B0C0043F480727B689A627B681B68414A9342FB
:101B1C0005D1414B5B6803F47023002B15D17B6816
:101B2C009B6A23F480127B689A627B681B685B68F3
:101B3C0003F48063002B26D07B689B6A23F440530C
:101B4C0043F480527B689A621DE07B689B6A43F485
:101B5C0080127B689A627B681B682F4A934204D080
:101B6C007B681B682B4A93420DD12B4B5B6803F4AB
:101B7C008063002B07D07B689B6A23F4405343F4AB
:101B8C0080527B689A627B689B6A03F48053002BBB
:101B9C0006D07B68DB6A23F006027B68DA6202E01F
:101BAC007B680022DA627B68002283F824207B6841
:101BBC001B686FF002021A607B681B689B6803F459
:101BCC006023B3F5602F13D17B681B68114A9342D5
:101BDC0005D1114B5B6803F47023002B08D17B6893
:101BEC001B689A687B681B6842F4A0029A600CE040
:101BFC007B681B689A687B681B6842F480129A6049
:101C0C0003E07B68002283F82420FB7B1846103706
:101C1C00BD4680BD002801400024014090B587B02E
:101C2C0000AF7860396000237B610023FB600023E8
:101C3C003B61FFF73FFE78617B681B689B6803F490
:101C4C008073002B0BD07B689B6A43F020027B686F
:101C5C009A627B68002283F824200123D3E07B68FE
:101C6C001B685B6803F48073002B31D17B681B68A5
:101C7C00DB6A03F47003002B2AD121E03B68B3F13B
:101C8C00FF3F1DD03B68002B07D0FFF713FE024629
:101C9C007B69D31A3A689A4212D27B681B681B681C
:101CAC0003F00203002B0BD17B689B6A43F0040208
:101CBC007B689A627B68002283F824200323A2E0CD
:101CCC007B681B681B6803F00203002BD6D070E006
:101CDC004F4B1C68022002F07FF80346B4FBF3F272
:101CEC007B681B6819694B4B0B40002B18D17B6828
:101CFC001B68D968484B0B40002B11D17B681B68C3
:101D0C001969464B0B40002B08D17B681B68D968BE
:101D1C00434B0B40002B01D1142320E029231EE060
:101D2C007B681B6819693D4B0B40002B06D17B6807
:101D3C001B68D9683A4B0B40002B0DD07B681B6895
:101D4C001969384B0B40002B08D17B681B68D9688C
:101D5C00344B0B40002B01D1542300E0FC2302FB3D
:101D6C0003F33B6121E03B68B3F1FF3F1AD03B68C2
:101D7C00002B07D0FFF79EFD02467B69D31A3A6809
:101D8C009A420FD2FB683A699A420BD97B689B6ADC
:101D9C0043F004027B689A627B68002283F824205B
:101DAC00032330E0FB680133FB60FB683A699A421D
:101DBC00D9D87B681B686FF012021A607B689B6A2B
:101DCC0043F400727B689A627B681B689B6803F41F
:101DDC006023B3F5602F15D17B681B7B002B11D1D1
:101DEC007B689B6A23F480727B689A627B689B6A2F
:101DFC0003F48053002B05D17B689B6A43F00102EE
:101E0C007B689A62002318461C37BD4690BD00BF04
:101E1C000000002024499224244992009224491263
:101E2C00922449004992240080B483B000AF7860BA
:101E3C007B681B68DB6C18460C37BD4680BC704752
:101E4C0080B485B000AF786039600023FB73002349
:101E5C00BB607B6893F82430012B01D10223DCE0BA
:101E6C007B68012283F824203B685B68062B1CD816
:101E7C007B681B68596B3B685A6813469B0013447C
:101E8C00053B1F2202FA03F3DB4319403B68186839
:101E9C003B685A6813469B001344053B00FA03F257
:101EAC007B681B680A435A633CE03B685B680C2BFD
:101EBC001CD87B681B68196B3B685A6813469B00DF
:101ECC001344233B1F2202FA03F3DB4319403B6804
:101EDC0018683B685A6813469B001344233B00FA6E
:101EEC0003F27B681B680A431A631BE07B681B6860
:101EFC00D96A3B685A6813469B001344413B1F2226
:101F0C0002FA03F3DB4319403B6818683B685A68D4
:101F1C0013469B001344413B00FA03F27B681B6899
:101F2C000A43DA623B681B68092B1CD97B681B6867
:101F3C00D9683B681A6813465B0013441E3B0722A2
:101F4C0002FA03F3DB4319403B6898683B681A6854
:101F5C0013465B0013441E3B00FA03F27B681B68BC
:101F6C000A43DA6019E07B681B6819693B681A68D8
:101F7C0013465B001344072202FA03F3DB431940B8
:101F8C003B6898683B681A6813465B00134400FA78
:101F9C0003F27B681B680A431A613B681B68102BB1
:101FAC0003D03B681B68112B32D17B681B681D4A20
:101FBC00934225D17B681B689B6803F40003002BBC
:101FCC0026D17B681B689A687B681B6842F4000208
:101FDC009A603B681B68102B1AD1134B1B68134A71
:101FEC00A2FB03239A0C13469B0013445B00BB60BB
:101FFC0002E0BB68013BBB60BB68002BF9D107E07A
:10200C007B689B6A43F020027B689A620123FB7316
:10201C007B68002283F82420FB7B18461437BD46CE
:10202C0080BC7047002401400000002083DE1B436D
:10203C0080B584B000AF78600023FB600023BB60E8
:10204C007B681B689B6803F00103012B40D07B6805
:10205C001B689A687B681B6842F001029A601F4BF0
:10206C001B681F4AA2FB03239B0CBB6002E0BB68EE
:10207C00013BBB60BB68002BF9D1FFF71BFCF86080
:10208C001FE0FFF717FC0246FB68D31A022B18D986
:10209C007B681B689B6803F00103012B11D07B68E4
:1020AC009B6A43F010027B689A627B68DB6A43F0A0
:1020BC0001027B68DA627B68002283F8242001230A
:1020CC0007E07B681B689B6803F00103012BD8D1E8
:1020DC00002318461037BD4680BD00BF000000200D
:1020EC0083DE1B4380B584B000AF78600023FB60B7
:1020FC007B681B689B6803F00103012B2ED17B6866
:10210C001B689A687B681B6822F001029A60FFF7D3
:10211C00D1FBF8601BE0FFF7CDFB0246FB68D31A3E
:10212C00022B14D97B681B689B6803F00103012BFD
:10213C000DD17B689B6A43F010027B689A627B68C6
:10214C00DB6A43F001027B68DA62012307E07B68FB
:10215C001B689B6803F00103012BDCD0002318469D
:10216C001037BD4680BD000080B485B000AF7860EC
:10217C007B6803F00703FB600C4BDB68BB60BA6841
:10218C004FF6FF031340BB60FB681A02BB68134396
:10219C0043F0BF6343F40033BB60044ABB68D360B5
:1021AC0000BF1437BD4680BC704700BF00ED00E097
:1021BC0080B400AF044BDB681B0A03F0070318461E
:1021CC00BD4680BC704700BF00ED00E080B483B01A
:1021DC0000AF0346FB7197F90730002B0BDBFB7943
:1021EC0003F01F02064997F907305B09012000FA3A
:1021FC0002F241F8232000BF0C37BD4680BC70476B
:10220C0000E100E080B483B000AF03463960FB719D
:10221C0097F90730002B0ADB3B68DAB20C4997F9C7
:10222C0007301201D2B20B4483F800230AE03B685A
:10223C00DAB20849FB7903F00F03043B1201D2B266
:10224C000B441A7600BF0C37BD4680BC704700BFEC
:10225C0000E100E000ED00E080B489B000AFF86070
:10226C00B9607A60FB6803F00703FB61FB69C3F19B
:10227C000703042B28BF0423BB61FB690433062B23
:10228C0002D9FB69033B00E000237B614FF0FF3276
:10229C00BB6902FA03F3DA43BB681A407B699A40C4
:1022AC004FF0FF317B6901FA03F3D9437B680B4094
:1022BC00134318462437BD4680BC704780B582B0A6
:1022CC0000AF78607B68013BB3F1807F01D30123C1
:1022DC000FE00A4A7B68013B53600F214FF0FF303F
:1022EC00FFF790FF054B00229A60044B07221A60FF
:1022FC00002318460837BD4680BD00BF10E000E043
:10230C0080B582B000AF78607868FFF72DFF00BF12
:10231C000837BD4680BD80B586B000AF0346B960B6
:10232C007A60FB7300237B61FFF742FF78617A6868
:10233C00B9687869FFF790FF024697F90F3011469C
:10234C001846FFF75FFF00BF1837BD4680BD80B54C
:10235C0082B000AF0346FB7197F907301846FFF7C0
:10236C0035FF00BF0837BD4680BD80B582B000AFD9
:10237C0078607868FFF7A2FF034618460837BD4619
:10238C0080BD000080B485B000AF78600023FB6096
:10239C007B68002B01D1012343E07B681B681A4644
:1023AC00224B1344224AA2FB03231B099A007B688D
:1023BC001A647B681F4ADA637B68022283F8212047
:1023CC007B681B681B68FB60FB6823F47F5323F05E
:1023DC003003FB607B685A687B689B681A437B6898
:1023EC00DB681A437B681B691A437B685B691A4379
:1023FC007B689B691A437B68DB691343FA68134358
:10240C00FB607B681B68FA681A607B6800229A6321
:10241C007B68012283F821207B68002283F820202E
:10242C00002318461437BD4680BC7047F8FFFDBF2B
:10243C00CDCCCCCC0000024080B485B000AF78602D
:10244C000023FB737B6893F82130DBB2022B08D09E
:10245C007B6804229A637B68002283F82020012386
:10246C0020E07B681B681A687B681B6822F00E02F0
:10247C001A607B681B681A687B681B6822F0010273
:10248C001A607B681A6C7B68DB6B012101FA02F223
:10249C005A607B68012283F821207B68002283F834
:1024AC002020FB7B18461437BD4680BC70470000CB
:1024BC0080B584B000AF78600023FB737B6893F821
:1024CC002130DBB2022B05D07B6804229A630123F6
:1024DC00FB7351E07B681B681A687B681B6822F0F1
:1024EC000E021A607B681B681A687B681B6822F0F6
:1024FC0001021A607B681B68224A934229D07B68D0
:10250C001B68214A934222D07B681B681F4A934266
:10251C001AD07B681B681E4A934212D07B681B68DA
:10252C001C4A93420AD07B681B681B4A934202D117
:10253C004FF480130EE04FF080730BE04FF48033B8
:10254C0008E04FF4805305E04FF4807302E0102351
:10255C0000E00123114A53607B68012283F821209B
:10256C007B68002283F820207B685B6B002B03D0F8
:10257C007B685B6B78689847FB7B18461037BD46C9
:10258C0080BD00BF080002401C0002403000024029
:10259C0044000240580002406C000240000002401F
:1025AC0080B584B000AF78607B68DB6B1B68FB6028
:1025BC007B681B681B68BB607B681B6C04229A40A1
:1025CC00FB681340002B4FD0BB6803F00403002BB7
:1025DC004AD07B681B681B6803F02003002B07D1D3
:1025EC007B681B681A687B681B6822F004021A60FF
:1025FC007B681B68664A934229D07B681B68654AD6
:10260C00934222D07B681B68634A93421AD07B6842
:10261C001B68624A934212D07B681B68604A9342E3
:10262C000AD07B681B685F4A934202D14FF4800347
:10263C000EE04FF080630BE04FF4802308E04FF482
:10264C00804305E04FF4806302E0402300E0042364
:10265C00554A53607B68DB6A002B00F094807B68E2
:10266C00DB6A786898478EE07B681B6C02229A4084
:10267C00FB681340002B56D0BB6803F00203002B01
:10268C0051D07B681B681B6803F02003002B0BD117
:10269C007B681B681A687B681B6822F00A021A6048
:1026AC007B68012283F821207B681B68384A93429F
:1026BC0029D07B681B68374A934222D07B681B6801
:1026CC00354A93421AD07B681B68344A934212D025
:1026DC007B681B68324A93420AD07B681B68314A7C
:1026EC00934202D14FF400130EE04FF000730BE055
:1026FC004FF4003308E04FF4005305E04FF400733F
:10270C0002E0202300E00223274A53607B6800226A
:10271C0083F820207B689B6A002B34D07B689B6AF3
:10272C00786898472FE07B681B6C08229A40FB68FE
:10273C001340002B28D0BB6803F00803002B23D0D8
:10274C007B681B681A687B681B6822F00E021A6093
:10275C007B681A6C7B68DB6B012101FA02F25A6010
:10276C007B6801229A637B68012283F821207B68B5
:10277C00002283F820207B681B6B002B04D07B6825
:10278C001B6B7868984700BF00BF1037BD4680BDF3
:10279C00080002401C00024030000240440002408D
:1027AC00580002406C0002400000024080B48BB024
:1027BC0000AF7860396000237B6200233B6269E1E3
:1027CC0001227B6A02FA03F3FB613B681B68FA691E
:1027DC001340BB61BA69FB699A4240F058813B686F
:1027EC005B689A4A93425ED0984A934275D8984A4D
:1027FC00934258D0964A93426FD8964A934252D0FD
:10280C00944A934269D8944A93424CD0924A934248
:10281C0063D8924A934246D0904A93425DD8122B89
:10282C002AD8122B59D801A252F823F0B328000849
:10283C008D2800089F280008E1280008E7280008D8
:10284C00E7280008E7280008E7280008E728000820
:10285C00E7280008E7280008E7280008E728000810
:10286C00E7280008E7280008E7280008E728000800
:10287C0095280008A9280008794A934213D02CE027
:10288C003B68DB683B6229E03B68DB6804333B62F6
:10289C0024E03B68DB6808333B621FE03B68DB6885
:1028AC000C333B621AE03B689B68002B02D104237B
:1028BC003B6213E03B689B68012B05D108233B620C
:1028CC007B68FA691A6109E008233B627B68FA6944
:1028DC005A6103E000233B6200E000BFBB69FF2BA1
:1028EC0001D87B6801E07B6804337B61BB69FF2BFB
:1028FC0002D87B6A9B0002E07B6A083B9B003B6131
:10290C007B691A680F213B6901FA03F3DB431A4018
:10291C00396A3B6901FA03F31A437B691A603B6815
:10292C005B6803F08053002B00F0B1804D4B9B692A
:10293C004C4A43F0010393614A4B9B6903F001033A
:10294C00BB60BB68484A7B6A9B08023352F8233051
:10295C00FB607B6A03F003039B000F2202FA03F374
:10296C00DB43FA681340FB607B68404A934213D008
:10297C007B683F4A93420DD07B683E4A934207D016
:10298C007B683D4A934201D1032306E0042304E013
:10299C00022302E0012300E000237A6A02F0030222
:1029AC0092009340FA681343FB602F497B6A9B08A3
:1029BC000233FA6841F823203B685B6803F4801308
:1029CC00002B06D02D4B9A682C49BB6913438B60A6
:1029DC0006E02A4B9A68BB69DB43284913408B609D
:1029EC003B685B6803F40013002B06D0234BDA68BA
:1029FC002249BB691343CB6006E0204BDA68BB6904
:102A0C00DB431E491340CB603B685B6803F4003327
:102A1C00002B06D0194B5A681849BB6913434B60FD
:102A2C0006E0164B5A68BB69DB43144913404B60F4
:102A3C003B685B6803F48033002B21D00F4B1A6882
:102A4C000E49BB6913430B6021E000BF000032103C
:102A5C0000003110000022100000211000001210A4
:102A6C00000011100010024000000140000801405D
:102A7C00000C014000100140001401400004014012
:102A8C000B4B1A68BB69DB43094913400B607B6A2B
:102A9C0001337B623B681A687B6A22FA03F3002BD2
:102AAC007FF48EAE00BF00BF2C37BD4680BC704794
:102ABC000004014080B485B000AF78600B467B8089
:102ACC007B689A687B881340002B02D00123FB7330
:102ADC0001E00023FB73FB7B18461437BD4680BC1A
:102AEC00704780B483B000AF78600B467B80134690
:102AFC007B707B78002B03D07A887B681A6103E0AB
:102B0C007B881A047B681A6100BF0C37BD4680BCF9
:102B1C007047000080B584B000AF78607B68002BF4
:102B2C0001D101232BE17B6893F83D30DBB2002B04
:102B3C0006D17B68002283F83C207868FEF758FCAD
:102B4C007B68242283F83D207B681B681A687B68AD
:102B5C001B6822F001021A607B681B681A687B688C
:102B6C001B6842F400421A607B681B681A687B6819
:102B7C001B6822F400421A6001F032F8F8607B689E
:102B8C005B68814A934207D8FB68804A934294BFA2
:102B9C0001230023DBB206E0FB687D4A934294BF1D
:102BAC0001230023DBB2002B01D00123E7E0FB68FB
:102BBC00784AA2FB03239B0CBB607B681B685B6899
:102BCC0023F03F017B681B68BA680A435A607B6834
:102BDC001B681B6A23F03F017B685B686A4A93425F
:102BEC0002D8BB68013309E0BB684FF4967202FB54
:102BFC0003F3694AA2FB03239B0901337A68126829
:102C0C000B4313627B681B68DB6923F44F4222F091
:102C1C00FF027B685B685C498B4219D8FB68591EC4
:102C2C007B685B685B00B1FBF3F3591C40F6FC73EB
:102C3C000B40002B0AD0FB68591E7B685B685B005D
:102C4C00B1FBF3F30133C3F30B0351E004234FE067
:102C5C007B689B68002B11D1FB68581E7B685968F8
:102C6C000B465B000B44B0FBF3F30133C3F30B03D4
:102C7C00002B0CBF01230023DBB212E0FB68581EB3
:102C8C007B6859680B469B000B4499000B44B0FBC6
:102C9C00F3F30133C3F30B03002B0CBF012300230D
:102CAC00DBB2002B01D0012322E07B689B68002B58
:102CBC000ED1FB68581E7B6859680B465B000B44B1
:102CCC00B0FBF3F30133C3F30B0343F400430FE006
:102CDC00FB68581E7B6859680B469B000B44990097
:102CEC000B44B0FBF3F30133C3F30B0343F4404346
:102CFC00796809681343CB617B681B681B6823F0F8
:102D0C00C0017B68DA697B681B6A1A437B681B68A5
:102D1C000A431A607B681B689B6823F4034323F007
:102D2C00FF037A6811697A68D26811437A6812686D
:102D3C000B4393607B681B68DB6823F0FF017B68A7
:102D4C005A697B689B691A437B681B680A43DA6083
:102D5C007B681B681A687B681B6842F001021A606A
:102D6C007B6800221A647B68202283F83D207B68F4
:102D7C0000221A637B68002283F83E200023184649
:102D8C001037BD4680BD00BFA08601007F841E00A9
:102D9C00FF083D0083DE1B43D34D621080B588B025
:102DAC0002AFF8607A601A460B467B8113463B8172
:102DBC00FEF780FD7861FB6893F83D30DBB2202B89
:102DCC0040F0E0807B690093192301227049F86878
:102DDC0000F064F90346002B01D00223D3E0FB681A
:102DEC0093F83C30012B01D10223CCE0FB6801228B
:102DFC0083F83C20FB681B681B6803F00103012B64
:102E0C0007D0FB681B681A68FB681B6842F001025C
:102E1C001A60FB681B681A68FB681B6822F4006266
:102E2C001A60FB68212283F83D20FB68102283F88E
:102E3C003E20FB6800221A64FB687A685A62FB68C1
:102E4C003A895A85FB685B8D9AB2FB681A85FB68D8
:102E5C00504ADA6279897B693A6AF86800F09CF822
:102E6C000346002B01D001238DE000233B61FB685E
:102E7C001B685B693B61FB681B689B693B613B6939
:102E8C0066E07A69396AF86800F022FA0346002B8A
:102E9C000DD0FB681B6C042B07D1FB681B681A68F0
:102EAC00FB681B6842F400721A6001236BE0FB683C
:102EBC005B6A1A78FB681B681A61FB685B6A5A1CB0
:102ECC00FB685A62FB685B8D9BB2013B9AB2FB6854
:102EDC005A85FB681B8D013B9AB2FB681A85FB680F
:102EEC001B685B6903F00403042B1BD1FB681B8D6F
:102EFC00002B17D0FB685B6A1A78FB681B681A6199
:102F0C00FB685B6A5A1CFB685A62FB685B8D9BB260
:102F1C00013B9AB2FB685A85FB681B8D013B9AB248
:102F2C00FB681A857A69396AF86800F019FA034661
:102F3C00002B0DD0FB681B6C042B07D1FB681B68A6
:102F4C001A68FB681B6842F400721A6001231AE0CD
:102F5C00FB681B8D002B94D1FB681B681A68FB68FF
:102F6C001B6842F400721A60FB68202283F83D2033
:102F7C00FB68002283F83E20FB68002283F83C208B
:102F8C00002300E0022318461837BD4680BD00BF61
:102F9C00020010000000FFFF80B588B002AFF8609F
:102FAC007A603B600B467B81FB68DB6A7B617B69EB
:102FBC00082B06D07B69012B03D07B6913F5803F6E
:102FCC0008D1FB681B681A68FB681B6842F48072A6
:102FDC001A600BE0FB681B6B122B07D1FB681B689C
:102FEC001A68FB681B6842F480721A603B68009395
:102FFC007B6800224FF00111F86800F04FF803468F
:10300C00002B0DD0FB681B681B6803F48073B3F5B1
:10301C00807F03D1FB684FF400721A64032335E000
:10302C00FB681B69B3F5804F08D17B89DBB21A466C
:10303C00FB681B6802F0FE021A611BE07B89DB1146
:10304C00DBB203F00603DBB263F00F03DAB2FB680A
:10305C001B681A613B687A680E49F86800F098F8AA
:10306C000346002B01D0012310E07B89DAB2FB6808
:10307C001B681A613B687A680749F86800F088F8A1
:10308C000346002B01D0012300E00023184618371B
:10309C00BD4680BD080001000200010080B584B06F
:1030AC0000AFF860B9603B601346FB7148E03B68C9
:1030BC00B3F1FF3F44D0FEF7FDFB0246BB69D31AC8
:1030CC003A689A4202D33B68002B39D1BB681B0C7F
:1030DC00DBB2012B0DD1FB681B685B69DA43BB6863
:1030EC0013409BB2002B0CBF01230023DBB21A460A
:1030FC000CE0FB681B689B69DA43BB6813409BB20E
:10310C00002B0CBF01230023DBB21A46FB799A4239
:10311C0016D1FB6800221A63FB68202283F83D203D
:10312C00FB68002283F83E20FB681B6C43F02002F6
:10313C00FB681A64FB68002283F83C20012323E01F
:10314C00BB681B0CDBB2012B0DD1FB681B685B69E8
:10315C00DA43BB6813409BB2002B0CBF0123002346
:10316C00DBB21A460CE0FB681B689B69DA43BB6850
:10317C0013409BB2002B0CBF01230023DBB21A4679
:10318C00FB799A4293D0002318461037BD4680BD78
:10319C0080B584B000AFF860B9607A603B6071E0D4
:1031AC00FB681B685B6903F48063B3F5806F23D104
:1031BC00FB681B681A68FB681B6842F400721A6093
:1031CC00FB681B686FF480625A61FB6800221A630B
:1031DC00FB68202283F83D20FB68002283F83E2008
:1031EC00FB681B6C43F00402FB681A64FB6800224A
:1031FC0083F83C20012367E07B68B3F1FF3F41D0AB
:10320C00FEF758FB02463B68D31A7A689A4202D3FF
:10321C007B68002B36D1BB681B0CDBB2012B0CD1AD
:10322C00FB681B685B69DA43BB6813409BB2002BDD
:10323C0014BF01230023DBB20BE0FB681B689B6906
:10324C00DA43BB6813409BB2002B14BF012300234D
:10325C00DBB2002B16D0FB6800221A63FB6820221D
:10326C0083F83D20FB68002283F83E20FB681B6C32
:10327C0043F02002FB681A64FB68002283F83C20B0
:10328C00012321E0BB681B0CDBB2012B0CD1FB68CA
:10329C001B685B69DA43BB6813409BB2002B14BFFD
:1032AC0001230023DBB20BE0FB681B689B69DA434C
:1032BC00BB6813409BB2002B14BF01230023DBB26D
:1032CC00002B7FF46DAF002318461037BD4680BD30
:1032DC0080B584B000AFF860B9607A6034E0F8680B
:1032EC0000F086F80346002B01D0012334E0BB68C4
:1032FC00B3F1FF3F28D0FEF7DDFA02467B68D31A04
:10330C00BA689A4202D3BB68002B1DD1FB681B68BC
:10331C005B6903F08003802B16D0FB6800221A63D4
:10332C00FB68202283F83D20FB68002283F83E20B6
:10333C00FB681B6C43F02002FB681A64FB680022DC
:10334C0083F83C20012307E0FB681B685B6903F0F2
:10335C008003802BC3D1002318461037BD4680BD97
:10336C0080B584B000AFF860B9607A6034E0F8687A
:10337C0000F03EF80346002B01D0012334E0BB687B
:10338C00B3F1FF3F28D0FEF795FA02467B68D31ABB
:10339C00BA689A4202D3BB68002B1DD1FB681B682C
:1033AC005B6903F00403042B16D0FB6800221A633C
:1033BC00FB68202283F83D20FB68002283F83E2026
:1033CC00FB681B6C43F02002FB681A64FB6800224C
:1033DC0083F83C20012307E0FB681B685B6903F062
:1033EC000403042BC3D1002318461037BD4680BDFF
:1033FC0080B483B000AF78607B681B685B6903F4B2
:10340C008063B3F5806F1BD17B681B686FF480629F
:10341C005A617B6800221A637B68202283F83D2066
:10342C007B68002283F83E207B681B6C43F004020F
:10343C007B681A647B68002283F83C20012300E03F
:10344C00002318460C37BD4680BC704780B586B04B
:10345C0000AF78607B68002B01D1012372E27B689E
:10346C001B6803F00103002B00F08780924B5B6814
:10347C0003F00C03042B0CD08F4B5B6803F00C0394
:10348C00082B12D18C4B5B6803F48033B3F5803F6F
:10349C000BD1894B1B6803F40033002B6CD07B6879
:1034AC005B68002B68D101234CE27B685B68B3F549
:1034BC00803F06D1804B1B687F4A43F480331360F6
:1034CC002EE07B685B68002B0CD17B4B1B687A4A27
:1034DC0023F480331360784B1B68774A23F48023E2
:1034EC0013601DE07B685B68B3F5A02F0CD1724BA9
:1034FC001B68714A43F4802313606F4B1B686E4A40
:10350C0043F4803313600BE06B4B1B686A4A23F463
:10351C0080331360684B1B68674A23F48023136065
:10352C007B685B68002B13D0FEF7C4F9386108E0A8
:10353C00FEF7C0F902463B69D31A642B01D9032369
:10354C0000E25D4B1B6803F40033002BF0D014E059
:10355C00FEF7B0F9386108E0FEF7ACF902463B69BA
:10356C00D31A642B01D90323ECE1534B1B6803F4EE
:10357C000033002BF0D100E000BF7B681B6803F028
:10358C000203002B63D04C4B5B6803F00C03002B45
:10359C000BD0494B5B6803F00C03082B1CD1464B3A
:1035AC005B6803F48033002B16D1434B1B6803F08C
:1035BC000203002B05D07B681B69012B01D0012372
:1035CC00C0E13D4B1B6823F0F8027B685B69DB00B4
:1035DC00394913430B603AE07B681B69002B20D000
:1035EC00364B01221A60FEF765F9386108E0FEF7E8
:1035FC0061F902463B69D31A022B01D90323A1E1DD
:10360C002D4B1B6803F00203002BF0D02A4B1B68D8
:10361C0023F0F8027B685B69DB00274913430B60DE
:10362C0015E0264B00221A60FEF744F9386108E0D9
:10363C00FEF740F902463B69D31A022B01D903234A
:10364C0080E11D4B1B6803F00203002BF0D17B685B
:10365C001B6803F00803002B3AD07B689B69002B96
:10366C0019D0174B01221A60FEF724F9386108E0D3
:10367C00FEF720F902463B69D31A022B01D903232A
:10368C0060E10D4B5B6A03F00203002BF0D00120CC
:10369C0000F0CEFA1CE00A4B00221A60FEF70AF981
:1036AC0038610FE0FEF706F902463B69D31A022B8C
:1036BC0008D9032346E100BF00100240000042423B
:1036CC0080044242924B5B6A03F00203002BE9D167
:1036DC007B681B6803F00403002B00F0A68000231A
:1036EC00FB758B4BDB6903F08053002B0DD1884BA2
:1036FC00DB69874A43F08053D361854BDB6903F068
:10370C008053BB60BB680123FB75824B1B6803F4C1
:10371C008073002B18D17F4B1B687E4A43F4807357
:10372C001360FEF7C7F8386108E0FEF7C3F80246ED
:10373C003B69D31A642B01D9032303E1754B1B6836
:10374C0003F48073002BF0D07B68DB68012B06D16F
:10375C006F4B1B6A6E4A43F0010313622DE07B68CA
:10376C00DB68002B0CD16A4B1B6A694A23F00103FE
:10377C001362674B1B6A664A23F0040313621CE056
:10378C007B68DB68052B0CD1614B1B6A604A43F0EC
:10379C00040313625E4B1B6A5D4A43F00103136220
:1037AC000BE05B4B1B6A5A4A23F001031362584B24
:1037BC001B6A574A23F0040313627B68DB68002BF7
:1037CC0015D0FEF777F838610AE0FEF773F8024679
:1037DC003B69D31A41F28832934201D90323B1E0F9
:1037EC004B4B1B6A03F00203002BEED014E0FEF7E8
:1037FC0061F838610AE0FEF75DF802463B69D31ABE
:10380C0041F28832934201D903239BE0404B1B6A5F
:10381C0003F00203002BEED1FB7D012B05D13C4BB9
:10382C00DB693B4A23F08053D3617B68DB69002B57
:10383C0000F08780364B5B6803F00C03082B61D0DB
:10384C007B68DB69022B46D1334B00221A60FEF7F2
:10385C0031F8386108E0FEF72DF802463B69D31ABF
:10386C00022B01D903236DE0294B1B6803F0007375
:10387C00002BF0D17B681B6AB3F5803F08D1244B39
:10388C005B6823F400327B689B68214913434B60CF
:10389C001F4B5B6823F474127B68196A7B685B6A44
:1038AC000B431B4913434B601B4B01221A60FEF761
:1038BC0001F8386108E0FDF7FDFF02463B69D31AB9
:1038CC00022B01D903233DE0114B1B6803F000735D
:1038DC00002BF0D035E0104B00221A60FDF7EAFF08
:1038EC00386108E0FDF7E6FF02463B69D31A022B6C
:1038FC0001D9032326E0064B1B6803F00073002B51
:10390C00F0D11EE07B68DB69012B07D1012319E0A4
:10391C000010024000700040600042420B4B5B689C
:10392C00FB60FB6803F480327B681B6A9A4206D109
:10393C00FB6803F470127B685B6A9A4201D0012326
:10394C0000E0002318461837BD4680BD0010024029
:10395C0080B584B000AF786039607B68002B01D1F2
:10396C000123D0E06A4B1B6803F007033A689A42C4
:10397C0010D9674B1B6823F0070265493B6813435A
:10398C000B60634B1B6803F007033A689A4201D043
:10399C000123B8E07B681B6803F00203002B20D0E6
:1039AC007B681B6803F00403002B05D0594B5B6844
:1039BC00584A43F4E06353607B681B6803F00803C8
:1039CC00002B05D0534B5B68524A43F46053536051
:1039DC00504B5B6823F0F0027B689B684D491343A6
:1039EC004B607B681B6803F00103002B40D07B68A5
:1039FC005B68012B07D1474B1B6803F40033002B8A
:103A0C0015D101237FE07B685B68022B07D1414B0A
:103A1C001B6803F00073002B09D1012373E03D4BAD
:103A2C001B6803F00203002B01D101236BE0394B1F
:103A3C005B6823F003027B685B68364913434B6079
:103A4C00FDF738FFF8600AE0FDF734FF0246FB682B
:103A5C00D31A41F28832934201D9032353E02D4B00
:103A6C005B6803F00C027B685B689B009A42EBD1AD
:103A7C00274B1B6803F007033A689A4210D2244B79
:103A8C001B6823F0070222493B6813430B60204B51
:103A9C001B6803F007033A689A4201D0012332E015
:103AAC007B681B6803F00403002B08D0194B5B6880
:103ABC0023F4E0627B68DB68164913434B607B6838
:103ACC001B6803F00803002B09D0124B5B6823F42E
:103ADC0060527B681B69DB000E4913434B6000F09E
:103AEC0021F802460B4B5B681B0903F00F030A49D4
:103AFC00CB5C22FA03F3094A1360094B1B68184686
:103B0C00FDF796FE002318461037BD4680BD00BF5A
:103B1C000020024000100240145F0008000000204A
:103B2C000400002080B487B000AF0023FB600023AA
:103B3C00BB6000237B6100237B6000233B611E4B39
:103B4C005B68FB60FB6803F00C03042B02D0082BB2
:103B5C0003D027E0194B3B6127E0FB689B0C03F07B
:103B6C000F03174AD35C7B60FB6803F48033002B94
:103B7C0010D0114B5B685B0C03F00103114AD35C52
:103B8C00BB607B680D4A03FB02F2BB68B2FBF3F32C
:103B9C007B6104E07B680C4A02FB03F37B617B696D
:103BAC003B6102E0054B3B6100BF3B6918461C378B
:103BBC00BD4680BC704700BF0010024000127A0066
:103BCC002C5F00083C5F000800093D0080B400AF8A
:103BDC00024B1B681846BD4680BC70470000002095
:103BEC0080B500AFFFF7F2FF0246054B5B681B0A7E
:103BFC0003F007030349CB5C22FA03F3184680BD9C
:103C0C0000100240245F000880B500AFFFF7DEFF14
:103C1C000246054B5B68DB0A03F007030349CB5CE8
:103C2C0022FA03F3184680BD00100240245F0008FE
:103C3C0080B485B000AF78600A4B1B680A4AA2FBBF
:103C4C0003235B0A7A6802FB03F3FB6000BFFB688B
:103C5C005A1EFA60002BF9D100BF00BF1437BD46C5
:103C6C0080BC704700000020D34D621080B586B038
:103C7C0000AF786000233B610023FB607B681B680E
:103C8C0003F00103002B7DD00023FB754F4BDB6948
:103C9C0003F08053002B0DD14C4BDB694B4A43F0A6
:103CAC008053D361494BDB6903F08053BB60BB6825
:103CBC000123FB75464B1B6803F48073002B18D152
:103CCC00434B1B68424A43F480731360FDF7F2FDCB
:103CDC00386108E0FDF7EEFD02463B69D31A642B10
:103CEC0001D903236DE03A4B1B6803F48073002B5E
:103CFC00F0D0364B1B6A03F44073FB60FB68002B5F
:103D0C002ED07B685B6803F44073FA689A4227D024
:103D1C002E4B1B6A23F44073FB602E4B01221A605E
:103D2C002C4B00221A60294AFB681362FB6803F0D3
:103D3C000103002B14D0FDF7BDFD38610AE0FDF73F
:103D4C00B9FD02463B69D31A41F28832934201D93C
:103D5C00032336E01D4B1B6A03F00203002BEED04D
:103D6C001A4B1B6A23F440727B685B681749134338
:103D7C000B62FB7D012B05D1144BDB69134A23F03D
:103D8C008053D3617B681B6803F00203002B08D0BF
:103D9C000E4B5B6823F440427B689B680B491343D2
:103DAC004B607B681B6803F01003002B08D0074B9B
:103DBC005B6823F480027B68DB68044913434B6027
:103DCC00002318461837BD4680BD00BF00100240C6
:103DDC00007000404004424280B588B000AF78606B
:103DEC0000237B610023FB6100233B610023FB600C
:103DFC000023BB617B68102B0AD07B68102B00F270
:103E0C008A807B68012B45D07B68022B75D082E0C1
:103E1C00464B5B68FB60454B1B6803F08073002BC3
:103E2C007BD0FB689B0C03F00F03414AD35C3B61D6
:103E3C00FB6803F48033002B15D03C4B5B685B0CA8
:103E4C0003F001033B4AD35C7B61FB6803F48033D2
:103E5C00002B0DD0384A7B69B2FBF3F23B6902FBB5
:103E6C0003F3FB6104E03B69344A02FB03F3FB619F
:103E7C002E4B5B6803F48003B3F5800F02D1FB6912
:103E8C00BB614AE0FB695B002D4AA2FB03235B0884
:103E9C00BB6142E0254B1B6AFB60FB6803F440737B
:103EAC00B3F5807F08D1FB6803F00203002B03D02D
:103EBC004FF40043BB611FE0FB6803F44073B3F5A0
:103ECC00007F09D1194B5B6A03F00203002B03D06E
:103EDC0049F64043BB610FE0FB6803F44073B3F554
:103EEC00407F1CD1114B1B6803F40033002B16D000
:103EFC004FF22443BB6112E011E0FFF785FE02464E
:103F0C000A4B5B689B0B03F0030301335B00B2FBB2
:103F1C00F3F3BB6104E000BF02E000BF00E000BFB0
:103F2C00BB6918462037BD4680BD00BF001002405B
:103F3C00405F0008505F000800127A0000093D0045
:103F4C00ABAAAAAA80B582B000AF78607B68002BC0
:103F5C0001D1012341E07B6893F83D30DBB2002BAB
:103F6C0006D17B68002283F83C207868FDF77EFA46
:103F7C007B68022283F83D207B681A687B680433D7
:103F8C001946104600F040F97B68012283F8462060
:103F9C007B68012283F83E207B68012283F83F2056
:103FAC007B68012283F840207B68012283F8412042
:103FBC007B68012283F842207B68012283F843202E
:103FCC007B68012283F844207B68012283F845201A
:103FDC007B68012283F83D20002318460837BD4634
:103FEC0080BD000080B485B000AF78607B6893F82A
:103FFC003D30DBB2012B01D0012332E07B68022281
:10400C0083F83D207B681B68184A93420ED07B686E
:10401C001B68B3F1804F09D07B681B68144A93422C
:10402C0004D07B681B68134A934211D17B681B68D0
:10403C009B6803F00703FB60FB68062B10D07B68C2
:10404C001B681A687B681B6842F001021A6007E063
:10405C007B681B681A687B681B6842F001021A6057
:10406C00002318461437BD4680BC7047002C014015
:10407C00000400400008004080B584B000AF7860B8
:10408C0039600023FB737B6893F83C30012B01D122
:10409C000223B4E07B68012283F83C207B68022277
:1040AC0083F83D207B681B689B68BB60BB6823F072
:1040BC007703BB60BB6823F47F43BB607B681B68E2
:1040CC00BA689A603B681B68B3F5005F3ED0B3F5E5
:1040DC00005F00F28780B3F5805F00F08680B3F557
:1040EC00805F7FD8702B1AD0702B7BD8602B50D070
:1040FC00602B77D8502B3CD0502B73D8402B58D0FA
:10410C00402B6FD8302B64D0302B6BD8202B60D049
:10411C00202B67D8002B5CD0102B5AD062E07B6828
:10412C0018683B6899683B685A683B68DB6800F024
:10413C0050F97B681B689B68BB60BB6843F07703D6
:10414C00BB607B681B68BA689A604FE07B68186834
:10415C003B6899683B685A683B68DB6800F039F942
:10416C007B681B689A687B681B6842F480429A6083
:10417C003CE07B6818683B6859683B68DB681A460A
:10418C0000F0B0F87B681B685021184600F007F966
:10419C002CE07B6818683B6859683B68DB681A46FA
:1041AC0000F0CEF87B681B686021184600F0F7F829
:1041BC001CE07B6818683B6859683B68DB681A46EA
:1041CC0000F090F87B681B684021184600F0E7F877
:1041DC000CE07B681A683B681B681946104600F0B7
:1041EC00DEF803E00123FB7300E000BF7B680122D3
:1041FC0083F83D207B68002283F83C20FB7B18462B
:10420C001037BD4680BD000080B485B000AF78602B
:10421C0039607B681B68FB607B682F4A93420BD02C
:10422C007B68B3F1804F07D07B682C4A934203D054
:10423C007B682B4A934208D1FB6823F07003FB6028
:10424C003B685B68FA681343FB607B68224A9342C5
:10425C000BD07B68B3F1804F07D07B681F4A934229
:10426C0003D07B681E4A934208D1FB6823F4407349
:10427C00FB603B68DB68FA681343FB60FB6823F068
:10428C0080023B685B691343FB607B68FA681A60C9
:10429C003B689A687B68DA623B681A687B689A624A
:1042AC007B680D4A934203D13B681A697B681A6399
:1042BC007B6801225A617B681B6903F00103002BA8
:1042CC0005D07B681B6923F001027B681A6100BF73
:1042DC001437BD4680BC7047002C014000040040E0
:1042EC000008004080B487B000AFF860B9607A6015
:1042FC00FB681B6A7B61FB681B6A23F00102FB688D
:10430C001A62FB689B693B613B6923F0F0033B61DC
:10431C007B681B013A6913433B617B6923F00A03F9
:10432C007B617A69BB6813437B61FB683A699A616C
:10433C00FB687A691A6200BF1C37BD4680BC7047A7
:10434C0080B487B000AFF860B9607A60FB681B6A14
:10435C007B61FB681B6A23F01002FB681A62FB6826
:10436C009B693B613B6923F470433B617B681B0396
:10437C003A6913433B617B6923F0A0037B61BB6803
:10438C001B017A6913437B61FB683A699A61FB688C
:10439C007A691A6200BF1C37BD4680BC704780B476
:1043AC0085B000AF786039607B689B68FB60FB6808
:1043BC0023F07003FB603A68FB68134343F0070378
:1043CC00FB607B68FA689A6000BF1437BD4680BCFE
:1043DC00704780B487B000AFF860B9607A603B601A
:1043EC00FB689B687B617B6923F47F437B613B6843
:1043FC001A027B681A43BB6813437A6913437B61C7
:10440C00FB687A699A6000BF1C37BD4680BC704758
:10441C0080B485B000AF786039607B6893F83C302D
:10442C00012B01D1022346E07B68012283F83C205A
:10443C007B68022283F83D207B681B685B68FB600D
:10444C007B681B689B68BB60FB6823F07003FB6098
:10445C003B681B68FA681343FB607B681B68FA684F
:10446C005A607B681B68164A93420ED07B681B68A7
:10447C00B3F1804F09D07B681B68124A934204D079
:10448C007B681B68104A93420CD1BB6823F08003F5
:10449C00BB603B685B68BA681343BB607B681B6896
:1044AC00BA689A607B68012283F83D207B68002201
:1044BC0083F83C20002318461437BD4680BC704757
:1044CC00002C0140000400400008004080B582B080
:1044DC0000AF78607B68002B01D101234AE07B6838
:1044EC0093F84130DBB2002B06D17B68002283F8B5
:1044FC0040207868FCF7D8FF7B68242283F84120A1
:10450C007B681B68DA687B681B6822F40052DA60EF
:10451C00786800F087FC7B681B681A697B681B68ED
:10452C0022F490421A617B681B685A697B681B688D
:10453C0022F022025A617B681B685A697B681B68EF
:10454C0042F008025A617B681B68DA687B681B685A
:10455C0042F40052DA607B6800225A647B682022A5
:10456C0083F841207B68202283F842207B6800225C
:10457C005A63002318460837BD4680BD80B5BAB0D3
:10458C0000AF78607B681B681B68C7F8E4307B68F9
:10459C001B68DB68C7F8E0307B681B685B69C7F891
:1045AC00DC300023C7F8D8300023C7F8D430D7F854
:1045BC00E43003F00F03C7F8D830D7F8D830002B0D
:1045CC000FD1D7F8E43003F02003002B09D0D7F833
:1045DC00E03003F02003002B03D0786800F063FB7D
:1045EC005BE2D7F8D830002B00F0DE80D7F8DC3057
:1045FC0003F00103002B06D1D7F8E03003F49073DD
:10460C00002B00F0D180D7F8E43003F00103002B2D
:10461C000BD0D7F8E03003F48073002B05D07B6807
:10462C005B6C43F001027B685A64D7F8E43003F00A
:10463C000403002B0BD0D7F8DC3003F00103002B64
:10464C0005D07B685B6C43F002027B685A64D7F838
:10465C00E43003F00203002B0BD0D7F8DC3003F06E
:10466C000103002B05D07B685B6C43F004027B6874
:10467C005A64D7F8E43003F00803002B11D0D7F8B4
:10468C00E03003F02003002B05D1D7F8DC3003F029
:10469C000103002B05D07B685B6C43F008027B6840
:1046AC005A647B685B6C002B00F0F281D7F8E43025
:1046BC0003F02003002B08D0D7F8E03003F02003E0
:1046CC00002B02D0786800F0EEFA7B681B685B69FF
:1046DC0003F04003002B14BF01230023DBB2C7F807
:1046EC00D4307B685B6C03F00803002B03D1D7F844
:1046FC00D430002B4FD0786800F0F8F97B681B6839
:10470C005B6903F04003002B41D07B681B681433BA
:10471C00C7F89C30D7F89C3053E8003FC7F8983066
:10472C00D7F8983023F04003C7F8D0307B681B686B
:10473C001433D7F8D020C7F8A820C7F8A430D7F87E
:10474C00A410D7F8A82041E80023C7F8A030D7F868
:10475C00A030002BD9D17B68DB6B002B13D07B688E
:10476C00DB6B7E4A5A637B68DB6B1846FDF7A0FE59
:10477C000346002B16D07B68DB6B5B6B7A68D26BC5
:10478C00104698470EE0786800F09CF90AE07868CB
:10479C0000F098F906E0786800F094F97B68002244
:1047AC005A6475E100BF73E17B681B6B012B40F011
:1047BC004F81D7F8E43003F01003002B00F0488150
:1047CC00D7F8E03003F01003002B00F041810023F8
:1047DC00BB607B681B681B68BB607B681B685B6885
:1047EC00BB60BB687B681B685B6903F04003002BF4
:1047FC0000F0B6807B68DB6B1B685B68A7F8BE308B
:10480C00B7F8BE30002B00F045817B689B8DB7F864
:10481C00BE209A4280F03E817B68B7F8BE20DA85D4
:10482C007B68DB6B9B69202B00F088807B681B68A6
:10483C000C33C7F88830D7F8883053E8003FC7F8F6
:10484C008430D7F8843023F48073C7F8B8307B6891
:10485C001B680C33D7F8B820C7F89420C7F89030F1
:10486C00D7F89010D7F8942041E80023C7F88C3083
:10487C00D7F88C30002BD9D17B681B6814337B673D
:10488C007B6F53E8003F3B673B6F23F00103C7F896
:10489C00B4307B681B681433D7F8B420C7F8802079
:1048AC00FB67F96FD7F8802041E80023BB67BB6F2B
:1048BC00002BE1D17B681B6814333B663B6E53E8DD
:1048CC00003FFB65FB6D23F04003C7F8B0307B68FD
:1048DC001B681433D7F8B020FA66BB66B96EFA6E53
:1048EC0041E800237B667B6E002BE3D17B682022A2
:1048FC0083F842207B6800221A637B681B680C33A8
:10490C00FB64FB6C53E8003FBB64BB6C23F01003EF
:10491C00C7F8AC307B681B680C33D7F8AC20BA6591
:10492C007B65796DBA6D41E800233B653B6D002BCF
:10493C00E3D17B68DB6B1846FDF77EFD7B680222BA
:10494C005A637B689A8D7B68DB8D9BB2D31A9BB2C2
:10495C001946786800F0BFF89CE000BFBD4B00081A
:10496C007B689A8D7B68DB8D9BB2D31AA7F8CE300F
:10497C007B68DB8D9BB2002B00F08E80B7F8CE30BD
:10498C00002B00F089807B681B680C33BB63BB6B0E
:10499C0053E8003F7B637B6B23F49073C7F8C830FC
:1049AC007B681B680C33D7F8C8207A643B64396C7D
:1049BC007A6C41E80023FB63FB6B002BE3D17B6833
:1049CC001B6814337B627B6A53E8003F3B623B6A93
:1049DC0023F00103C7F8C4307B681B681433D7F885
:1049EC00C4203A63FB62F96A3A6B41E80023BB626C
:1049FC00BB6A002BE3D17B68202283F842207B68C2
:104A0C0000221A637B681B680C333B613B6953E8DB
:104A1C00003FFB60FB6823F01003C7F8C0307B68D5
:104A2C001B680C33D7F8C020FA61BB61B969FA690D
:104A3C0041E800237B617B69002BE3D17B68022278
:104A4C005A63B7F8CE301946786800F044F823E082
:104A5C00D7F8E43003F08003002B09D0D7F8E0300E
:104A6C0003F08003002B03D0786800F0B5F814E055
:104A7C00D7F8E43003F04003002B0ED0D7F8E03029
:104A8C0003F04003002B08D0786800F0F4F804E041
:104A9C0000BF02E000BF00E000BFE837BD4680BDAC
:104AAC0080B483B000AF786000BF0C37BD4680BCCB
:104ABC00704780B483B000AF786000BF0C37BD4640
:104ACC0080BC704780B483B000AF786000BF0C37F7
:104ADC00BD4680BC704780B483B000AF78600B4695
:104AEC007B8000BF0C37BD4680BC704780B495B04E
:104AFC0000AF78607B681B680C337B637B6B53E87F
:104B0C00003F3B633B6B23F49073FB647B681B6837
:104B1C000C33FA6C3A64FB63F96B3A6C41E8002392
:104B2C00BB63BB6B002BE5D17B681B6814333B620A
:104B3C003B6A53E8003FFB61FB6923F00103BB6454
:104B4C007B681B681433BA6CFA62BB62B96AFA6A86
:104B5C0041E800237B627B6A002BE5D17B681B6BF1
:104B6C00012B19D17B681B680C33FB60FB6853E885
:104B7C00003FBB60BB6823F010037B647B681B6841
:104B8C000C337A6CBA617B617969BA6941E80023AC
:104B9C003B613B69002BE5D17B68202283F84220E6
:104BAC007B6800221A6300BF5437BD4680BC704737
:104BBC0080B584B000AF78607B685B6AFB60FB6893
:104BCC000022DA85FB680022DA84F868FFF77AFFA6
:104BDC0000BF1037BD4680BD80B485B000AF786093
:104BEC007B6893F84130DBB2212B3ED17B689B680C
:104BFC00B3F5805F14D17B681B69002B10D17B68E7
:104C0C001B6AFB60FB681B881A467B681B68C2F337
:104C1C0008025A607B681B6A9A1C7B681A6208E05F
:104C2C007B681B6A591C7A6811621A787B681B684E
:104C3C005A607B68DB8C9BB2013B9BB27A6819464D
:104C4C00D184002B0FD17B681B68DA687B681B68EA
:104C5C0022F08002DA607B681B68DA687B681B686C
:104C6C0042F04002DA60002300E0022318461437B9
:104C7C00BD4680BC704780B582B000AF78607B6861
:104C8C001B68DA687B681B6822F04002DA607B687C
:104C9C00202283F841207868FFF702FF0023184692
:104CAC000837BD4680BD80B58CB000AF78607B689E
:104CBC0093F84230DBB2222B40F0AE807B689B68CD
:104CCC00B3F5805F17D17B681B69002B13D10023D0
:104CDC00FB627B689B6ABB627B681B685B689BB2F0
:104CEC00C3F308039AB2BB6A1A807B689B6A9A1C4E
:104CFC007B689A6226E07B689B6AFB620023BB623E
:104D0C007B689B68B3F5805F07D07B689B68002B42
:104D1C000AD17B681B69002B06D17B681B685B681A
:104D2C00DAB2FB6A1A7008E07B681B685B68DBB25E
:104D3C0003F07F03DAB2FB6A1A707B689B6A5A1C19
:104D4C007B689A627B68DB8D9BB2013B9BB27A6875
:104D5C001946D185002B5DD17B681B68DA687B68AE
:104D6C001B6822F02002DA607B681B68DA687B68BB
:104D7C001B6822F48072DA607B681B685A697B6856
:104D8C001B6822F001025A617B68202283F84220C2
:104D9C007B6800225A637B681B6B012B35D17B68C7
:104DAC0000221A637B681B680C337B617B6953E8B8
:104DBC00003F3B613B6923F010037B627B681B68FF
:104DCC000C337A6A3A62FB61F9693A6A41E800236A
:104DDC00BB61BB69002BE5D17B681B681B6803F0CA
:104DEC001003102B0AD10023FB607B681B681B6827
:104DFC00FB607B681B685B68FB60FB687B689B8D5A
:104E0C0019467868FFF767FE02E07868FFF751FEF5
:104E1C00002302E0002300E0022318463037BD4691
:104E2C0080BD000080B584B000AF78607B681B68E3
:104E3C001B6923F440517B68DA687B681B680A4362
:104E4C001A617B689A687B681B691A437B685B698B
:104E5C001343BB607B681B68DB6823F4B05323F0FF
:104E6C000C037A681268B9680B43D3607B681B68C3
:104E7C005B6923F440717B689A697B681B680A4301
:104E8C005A617B681B682C4A934203D1FEF7BCFE27
:104E9C00F86002E0FEF7A4FEF860FA6813469B0087
:104EAC0013449A001A447B685B689B00B2FBF3F3D3
:104EBC00224AA2FB03235B091901FA6813469B00E3
:104ECC0013449A001A447B685B689B00B2FBF3F2B4
:104EDC001A4BA3FB02035B09642000FB03F3D31AF8
:104EEC001B013233154AA2FB03235B0903F0F003C9
:104EFC001944FA6813469B0013449A001A447B68C1
:104F0C005B689B00B2FBF3F20C4BA3FB02035B0947
:104F1C00642000FB03F3D31A1B013233074AA2FBB4
:104F2C0003235B0903F00F027B681B680A449A6039
:104F3C0000BF1037BD4680BD003801401F85EB51C6
:104F4C00014B1868704700BF0C00002070B500269C
:104F5C000C4D0D4C641BA410A64209D100F0B6FFF9
:104F6C0000260A4D0A4C641BA410A64205D170BD44
:104F7C0055F8043B98470136EEE755F8043B984743
:104F8C000136F2E7EC5F0008EC5F0008EC5F00080C
:104F9C00F05F000803460244934200D1704703F8C7
:104FAC00011BF9E70FB40A4B13B51C6824B1A369B4
:104FBC0013B9204600F066F805AB2046049AA168A8
:104FCC00019300F0BBF902B0BDE8104004B070478B
:104FDC000C000020002310B50446C0E90033C0E9E2
:104FEC000433836081814366C28183611946082240
:104FFC005C30FFF7CFFF054B24626362044BA36266
:10500C00044BE362044B236310BD00BFF55800084A
:10501C00175900084F59000873590008014900F04E
:10502C00AFB800BF455C0008682270B54D1E5543F3
:10503C000E4605F1740100F0E5F8044640B100217C
:10504C00C0E900160C30A06005F16802FFF7A2FF62
:10505C00204670BD014800F0B3B800BF45020020E7
:10506C00014800F0AEB800BF45020020014800F036
:10507C00A7B800BF46020020014800F0A2B800BF4C
:10508C004602002010B50446FFF7F0FFA3691BB1E0
:10509C00BDE81040FFF7F0BFC4E912332365134B92
:1050AC00134A1B68A262A34208BF0123204608BF13
:1050BC00A36100F01FF86060204600F01BF8A060B0
:1050CC00204600F017F800220421E0606068FFF72A
:1050DC0081FF01220921A068FFF77CFF0222122127
:1050EC00E068FFF777FF0123A361D1E7545F000865
:1050FC0029500008F8B50746FFF7ACFF1E4B1E6899
:10510C00B36913B93046FFF7BDFF4836D6E9013411
:10511C00013B03D533680BB33668F7E7B4F90C5091
:10512C00D5B9164B04F15800E360656600F047F8FA
:10513C00FFF796FF08222946C4E90155C4E9045536
:10514C002560A56104F15C00FFF724FFC4E90D554F
:10515C00C4E912552046F8BD6834D9E70421384615
:10516C00FFF762FF044630600028D5D1FFF778FFC7
:10517C000C233B60EEE700BF545F00080100FFFF0B
:10518C002DE9F84306468846002700F14804D4E987
:10519C000195B9F1010905D52468002CF7D13846E1
:1051AC00BDE8F883AB89012B07D9B5F90E30013373
:1051BC0003D029463046C04707436835E9E77047B6
:1051CC007047704770B50E4E0C463168054611B9E4
:1051DC0000F07AFB30602146284600F075FB431C3A
:1051EC000AD0C41C24F00304A04207D0211A28467C
:1051FC0000F06AFB013001D14FF0FF34204670BD46
:10520C004C0200202DE9F041CD1C25F0030508359A
:10521C000C2D38BF0C25002D074601DBA94205D902
:10522C000C2300263B603046BDE8F0812E4E00F08A
:10523C00C5FD33681C4634BB29463846FFF7C2FF10
:10524C00431C04464DD134682646002E40D12368B9
:10525C003146384604EB030800F036FB80453AD162
:10526C00216803356D1A25F0030508350C2D38BF60
:10527C000C2538462946FFF7A5FF01302BD02368B3
:10528C002B4423600EE02268521B1ED40B2A16D925
:10529C006119A342256018BF5960636808BF31606B
:1052AC0062514B60384604F10B0600F08DFD26F080
:1052BC000706231DF21AB6D09B1BA350B3E76268F6
:1052CC00A3420CBF32605A60ECE723466468B2E735
:1052DC0034467668B9E70C2338463B6000F074FD21
:1052EC00A1E72560DEE700BF48020020936810B4F8
:1052FC00013B002B936007DA9469A34201DB0A2976
:10530C0002D110BC00F034BB1368581C106019702B
:10531C00084610BC7047F8B506460F461446D5181B
:10532C00AC4201D1002007E03A46304614F8011B8C
:10533C00FFF7DCFF431CF3D1F8BD00002DE9F04F63
:10534C000D461446984606469DB018B183690BB9B4
:10535C00FFF798FE894B9D421BD175686B6ED90780
:10536C0005D4AB899A0502D4A86DFFF729FFAB8948
:10537C001B0701D52B69EBB92946304600F05CFBC5
:10538C00C0B16B6EDC070ED54FF0FF301DB0BDE821
:10539C00F08F7B4B9D4201D1B568DFE7794B9D4285
:1053AC0008BFF568DAE7AB899805EDD4A86DFFF76F
:1053BC0008FFE9E70023099320238DF829303023D7
:1053CC004FF00109CDF80C80DFF8BC818DF82A3044
:1053DC0023469A4613F8012B0AB1252AF9D1BAEBC8
:1053EC00040B0BD05B46224629463046FFF793FF51
:1053FC00013000F0AA80099A5A4409929AF80030B8
:10540C00002B00F0A28000234FF0FF32CDE90523E2
:10541C000AF1010A049307938DF853301A935446FA
:10542C00052214F8011B584800F0BAFC049AD8B9AC
:10543C00D10644BF20238DF85330130744BF2B23D0
:10544C008DF853309AF800302A2B15D05446002092
:10545C004FF00A0C079A214611F8013B303B092BFF
:10546C004ED9B0B1079214E0A0EB080309FA03F38C
:10547C001343A2460493D2E7039B191D1B680391A7
:10548C00002BBBBF5B4242F0020207930793B8BFED
:10549C00049223782E2B0CD163782A2B35D1039BC5
:1054AC0002341A1D1B680392002BB8BF4FF0FF3358
:1054BC000593DFF8D8A003225046217800F070FC49
:1054CC0040B14023A0EB0A0003FA00F0049B013426
:1054DC000343049314F8011B06222D488DF8281061
:1054EC0000F05EFC00283FD02A4B1BBB039B07330C
:1054FC0023F0070308330393099B3B44099367E7A5
:10550C000C4601200CFB0232A5E700234FF00A0CDD
:10551C00194601340593204610F8012B303A092A1C
:10552C0003D9002BC5D00591C3E7044601230CFB1E
:10553C000121F0E703AB00932A463046164B04A931
:10554C00AFF300800746781CD6D16B6ED90705D413
:10555C00AB899A0502D4A86DFFF733FEAB895B06C5
:10556C003FF512AF099811E703AB00932A4630467A
:10557C00094B04A900F082F8E4E700BF785F00084B
:10558C00985F0008585F0008B85F0008BE5F00080D
:10559C00C25F000800000000235300082DE9F0470B
:1055AC00164699468A680B6907469342B8BF13465C
:1055BC00336091F843200C46DDF820800AB10133AA
:1055CC0033602368990642BF336802333360256821
:1055DC0015F0060506D104F1190AE36832689B1A26
:1055EC00AB4228DC94F84320131E226818BF012319
:1055FC0092062DD44946384604F14302C047013087
:10560C0020D02368E56803F00603042B18BF00259F
:10561C0032684FF00006A36808BFAD1A226908BFB4
:10562C0025EAE5759342C4BF9B1AED181A34B542AE
:10563C001AD1002008E00123524649463846C0479B
:10564C00013003D14FF0FF30BDE8F0870135C4E7DE
:10565C003020E11881F843005A1C94F8451022447C
:10566C00023382F84310C5E70123224649463846E7
:10567C00C0470130E6D00136D9E700002DE9FF47DD
:10568C000F7E9146782F80460C469A460C9D01F170
:10569C00430207D8622F0AD8002F00F0D980582F68
:1056AC0000F0A48004F1420584F842703AE0A7F1BE
:1056BC006303152BF6D801A151F823F021570008EC
:1056CC0035570008B1560008B1560008B15600080D
:1056DC00B156000835570008B1560008B1560008FD
:1056EC00B1560008B1560008435800086557000829
:1056FC0025580008B1560008B15600086558000836
:10570C00B156000865570008B1560008B15600089C
:10571C002D5800082B681A1D1B682A6004F14205DD
:10572C0084F842300123A4E020682968060601F1C0
:10573C0004030AD50E682B60002E03DA2D23764263
:10574C0084F843300A235E4819E00E6810F0400FCD
:10575C002B6018BF36B2EFE72B682068191D296043
:10576C00010601D51E6802E04606FBD51E886F2F88
:10577C000CBF08230A235248002184F843106568A3
:10578C00002DA8BF2168A560A4BF21F004012160F1
:10579C000EB9002D4DD01546B6FBF3F103FB116786
:1057AC00C75D05F8017D3746BB420E46F4D9082B80
:1057BC000BD12368DE0708D5236961689942DEBFE7
:1057CC00302305F8013C05F1FF35521B22614B4695
:1057DC0021464046CDF800A003AAFFF7DFFE0130BA
:1057EC004CD14FF0FF3004B0BDE8F087344881F85D
:1057FC0045702968236851F8046B29601D0614D57F
:10580C00DF0744BF43F0200323601EB9236823F055
:10581C00200323601023AFE7236843F020032360A9
:10582C007823284884F84530E3E7590648BFB6B2D8
:10583C00E6E71546BBE72B682668181D61692860EA
:10584C0035061B6801D5196002E07006FBD519807E
:10585C00002315462361BAE72B6800211A1D2A6024
:10586C001D686268284600F09BFA08B1401B606016
:10587C0063682361002384F84330A8E72A4649462D
:10588C0040462369D0470130ABD023689B0713D423
:10589C00E068039B9842B8BF1846A4E70123324640
:1058AC0049464046D04701309BD00135E368039907
:1058BC005B1AAB42F2DCEBE7002504F11906F5E7C5
:1058CC00C95F0008DA5F000838B50023054D0446AF
:1058DC0008462B60FBF734FF431C02D12B6803B145
:1058EC00236038BD5002002010B50C46B1F90E10E3
:1058FC0000F0B8FA0028ABBF636DA3891B1823F422
:10590C008053ACBF6365A38110BD2DE9F0411F46E8
:10591C008B890546DB050C46164605D5022300226D
:10592C00B1F90E1000F0C4F9A389324623F4805368
:10593C00A38128463B46B4F90E10BDE8F04100F0B7
:10594C0069B810B50C46B1F90E1000F0B1F9431C52
:10595C00A38915BF606523F4805343F48053A3815E
:10596C0018BFA38110BDB1F90E1000F0D3B8000020
:10597C00F8B50E461446054618B183690BB9FFF706
:10598C0081FB214B9C422BD16C68A369A360A3893A
:10599C001A072FD523696BB323692068F6B2C01A96
:1059AC0063693746834204DC2146284600F044F9FB
:1059BC0030BBA3680130013BA36023685A1C2260F2
:1059CC001E706369834204D0A389DB0706D50A2EB7
:1059DC0004D12146284600F02FF988B93846F8BD85
:1059EC000A4B9C4201D1AC68CFE7094B9C4208BFE3
:1059FC00EC68CAE72146284600F01EF80028CBD0F8
:105A0C004FF0FF37EAE700BF785F0008985F0008A7
:105A1C00585F000838B50446084611460022054D6B
:105A2C002A601A46FBF73FFE431C02D12B6803B1D8
:105A3C00236038BD50020020324B70B51D680646FD
:105A4C000C4625B1AB6913B92846FFF71BFB2E4B4F
:105A5C009C420FD16C68A389B4F90C2019072CD483
:105A6C00DD0611D40923336042F040034FF0FF30C0
:105A7C00A3813EE0254B9C4201D1AC68EBE7244B63
:105A8C009C4208BFEC68E6E7580712D5616B41B140
:105A9C0004F14403994202D0304600F09BF90023F4
:105AAC006363A38923F02403A38100236360236928
:105ABC002360A38943F00803A38123694BB9A3890D
:105ACC0003F42073B3F5007F03D02146304600F079
